{
  "_format": "hh-sol-artifact-1",
  "contractName": "AmmPrimitive",
  "sourceName": "contracts/primitives/AmmPrimitive.sol",
  "abi": [
    {
      "inputs": [
        {
          "internalType": "address",
          "name": "llmPrecompile",
          "type": "address"
        },
        {
          "internalType": "string",
          "name": "metadata",
          "type": "string"
        },
        {
          "internalType": "address",
          "name": "primitiveStorageAddress",
          "type": "address"
        }
      ],
      "stateMutability": "nonpayable",
      "type": "constructor"
    },
    {
      "inputs": [],
      "name": "AmmActive",
      "type": "error"
    },
    {
      "inputs": [],
      "name": "AmmNotActive",
      "type": "error"
    },
    {
      "inputs": [],
      "name": "EmptyInputString",
      "type": "error"
    },
    {
      "inputs": [],
      "name": "FeeTooHigh",
      "type": "error"
    },
    {
      "inputs": [],
      "name": "InsufficientLiquidityShare",
      "type": "error"
    },
    {
      "inputs": [],
      "name": "InvalidAmount",
      "type": "error"
    },
    {
      "inputs": [],
      "name": "InvalidInitialization",
      "type": "error"
    },
    {
      "inputs": [
        {
          "internalType": "string",
          "name": "reason",
          "type": "string"
        }
      ],
      "name": "InvalidString",
      "type": "error"
    },
    {
      "inputs": [],
      "name": "InvalidToken",
      "type": "error"
    },
    {
      "inputs": [],
      "name": "InvalidTokenAddress",
      "type": "error"
    },
    {
      "inputs": [],
      "name": "LiquidityNotAdded",
      "type": "error"
    },
    {
      "inputs": [],
      "name": "LiquidityNotZero",
      "type": "error"
    },
    {
      "inputs": [],
      "name": "NotInitializing",
      "type": "error"
    },
    {
      "inputs": [],
      "name": "OnlyProxy",
      "type": "error"
    },
    {
      "inputs": [
        {
          "internalType": "address",
          "name": "owner",
          "type": "address"
        }
      ],
      "name": "OwnableInvalidOwner",
      "type": "error"
    },
    {
      "inputs": [
        {
          "internalType": "address",
          "name": "account",
          "type": "address"
        }
      ],
      "name": "OwnableUnauthorizedAccount",
      "type": "error"
    },
    {
      "inputs": [],
      "name": "ReentrancyGuardReentrantCall",
      "type": "error"
    },
    {
      "inputs": [],
      "name": "TokenTransferFailed",
      "type": "error"
    },
    {
      "inputs": [],
      "name": "TokensNotSet",
      "type": "error"
    },
    {
      "anonymous": false,
      "inputs": [
        {
          "indexed": false,
          "internalType": "uint256",
          "name": "newFee",
          "type": "uint256"
        }
      ],
      "name": "FeeSet",
      "type": "event"
    },
    {
      "anonymous": false,
      "inputs": [
        {
          "indexed": false,
          "internalType": "uint64",
          "name": "version",
          "type": "uint64"
        }
      ],
      "name": "Initialized",
      "type": "event"
    },
    {
      "anonymous": false,
      "inputs": [
        {
          "indexed": false,
          "internalType": "address",
          "name": "account",
          "type": "address"
        },
        {
          "indexed": false,
          "internalType": "uint256",
          "name": "amount1",
          "type": "uint256"
        },
        {
          "indexed": false,
          "internalType": "uint256",
          "name": "amount2",
          "type": "uint256"
        }
      ],
      "name": "LiquidityAdded",
      "type": "event"
    },
    {
      "anonymous": false,
      "inputs": [
        {
          "indexed": false,
          "internalType": "address",
          "name": "account",
          "type": "address"
        },
        {
          "indexed": false,
          "internalType": "uint256",
          "name": "amount1",
          "type": "uint256"
        },
        {
          "indexed": false,
          "internalType": "uint256",
          "name": "amount2",
          "type": "uint256"
        }
      ],
      "name": "LiquidityRemoved",
      "type": "event"
    },
    {
      "anonymous": false,
      "inputs": [
        {
          "indexed": true,
          "internalType": "address",
          "name": "previousOwner",
          "type": "address"
        },
        {
          "indexed": true,
          "internalType": "address",
          "name": "newOwner",
          "type": "address"
        }
      ],
      "name": "OwnershipTransferred",
      "type": "event"
    },
    {
      "anonymous": false,
      "inputs": [
        {
          "indexed": false,
          "internalType": "address",
          "name": "token1Addr",
          "type": "address"
        },
        {
          "indexed": false,
          "internalType": "address",
          "name": "token2Addr",
          "type": "address"
        }
      ],
      "name": "TokensSet",
      "type": "event"
    },
    {
      "anonymous": false,
      "inputs": [
        {
          "indexed": false,
          "internalType": "address",
          "name": "account",
          "type": "address"
        },
        {
          "indexed": false,
          "internalType": "uint256",
          "name": "amountIn",
          "type": "uint256"
        },
        {
          "indexed": false,
          "internalType": "uint256",
          "name": "amountOut",
          "type": "uint256"
        }
      ],
      "name": "TokensSwapped",
      "type": "event"
    },
    {
      "inputs": [],
      "name": "LLM_PRECOMPILE",
      "outputs": [
        {
          "internalType": "contract ILLM",
          "name": "",
          "type": "address"
        }
      ],
      "stateMutability": "view",
      "type": "function"
    },
    {
      "inputs": [],
      "name": "activate",
      "outputs": [],
      "stateMutability": "nonpayable",
      "type": "function"
    },
    {
      "inputs": [
        {
          "internalType": "address",
          "name": "token1",
          "type": "address"
        },
        {
          "internalType": "string",
          "name": "amount1",
          "type": "string"
        },
        {
          "internalType": "address",
          "name": "token2",
          "type": "address"
        },
        {
          "internalType": "string",
          "name": "amount2",
          "type": "string"
        }
      ],
      "name": "addLiquidity",
      "outputs": [],
      "stateMutability": "nonpayable",
      "type": "function"
    },
    {
      "inputs": [
        {
          "internalType": "address",
          "name": "token1",
          "type": "address"
        },
        {
          "internalType": "uint256",
          "name": "amount1",
          "type": "uint256"
        },
        {
          "internalType": "address",
          "name": "token2",
          "type": "address"
        },
        {
          "internalType": "uint256",
          "name": "amount2",
          "type": "uint256"
        }
      ],
      "name": "addLiquidityUint",
      "outputs": [],
      "stateMutability": "nonpayable",
      "type": "function"
    },
    {
      "inputs": [
        {
          "internalType": "address",
          "name": "token1Addr",
          "type": "address"
        },
        {
          "internalType": "address",
          "name": "token2Addr",
          "type": "address"
        },
        {
          "internalType": "string",
          "name": "feeFloat",
          "type": "string"
        }
      ],
      "name": "configure",
      "outputs": [],
      "stateMutability": "nonpayable",
      "type": "function"
    },
    {
      "inputs": [],
      "name": "getFee",
      "outputs": [
        {
          "internalType": "string",
          "name": "",
          "type": "string"
        }
      ],
      "stateMutability": "view",
      "type": "function"
    },
    {
      "inputs": [],
      "name": "getInfo",
      "outputs": [
        {
          "internalType": "string",
          "name": "contractName",
          "type": "string"
        },
        {
          "internalType": "string",
          "name": "customRules",
          "type": "string"
        },
        {
          "internalType": "string",
          "name": "primitiveName",
          "type": "string"
        }
      ],
      "stateMutability": "view",
      "type": "function"
    },
    {
      "inputs": [
        {
          "internalType": "address",
          "name": "account",
          "type": "address"
        }
      ],
      "name": "getLiquidityShare",
      "outputs": [
        {
          "internalType": "string",
          "name": "",
          "type": "string"
        }
      ],
      "stateMutability": "view",
      "type": "function"
    },
    {
      "inputs": [],
      "name": "getMetadata",
      "outputs": [
        {
          "internalType": "string",
          "name": "",
          "type": "string"
        }
      ],
      "stateMutability": "view",
      "type": "function"
    },
    {
      "inputs": [],
      "name": "getPrimitiveAddress",
      "outputs": [
        {
          "internalType": "address",
          "name": "",
          "type": "address"
        }
      ],
      "stateMutability": "view",
      "type": "function"
    },
    {
      "inputs": [],
      "name": "getReserves",
      "outputs": [
        {
          "internalType": "string",
          "name": "",
          "type": "string"
        },
        {
          "internalType": "string",
          "name": "",
          "type": "string"
        }
      ],
      "stateMutability": "view",
      "type": "function"
    },
    {
      "inputs": [],
      "name": "getRobotState",
      "outputs": [
        {
          "components": [
            {
              "components": [
                {
                  "internalType": "string",
                  "name": "name",
                  "type": "string"
                },
                {
                  "internalType": "string",
                  "name": "value",
                  "type": "string"
                }
              ],
              "internalType": "struct IRobotStateEmitter.NamedFloat[]",
              "name": "floats",
              "type": "tuple[]"
            },
            {
              "components": [
                {
                  "internalType": "string",
                  "name": "name",
                  "type": "string"
                },
                {
                  "internalType": "uint256",
                  "name": "value",
                  "type": "uint256"
                }
              ],
              "internalType": "struct IRobotStateEmitter.NamedUint[]",
              "name": "uints",
              "type": "tuple[]"
            },
            {
              "components": [
                {
                  "internalType": "string",
                  "name": "name",
                  "type": "string"
                },
                {
                  "internalType": "string",
                  "name": "value",
                  "type": "string"
                }
              ],
              "internalType": "struct IRobotStateEmitter.NamedString[]",
              "name": "strings",
              "type": "tuple[]"
            },
            {
              "components": [
                {
                  "internalType": "string",
                  "name": "name",
                  "type": "string"
                },
                {
                  "internalType": "address",
                  "name": "value",
                  "type": "address"
                }
              ],
              "internalType": "struct IRobotStateEmitter.NamedAddress[]",
              "name": "addresses",
              "type": "tuple[]"
            },
            {
              "components": [
                {
                  "internalType": "string",
                  "name": "name",
                  "type": "string"
                },
                {
                  "internalType": "bool",
                  "name": "value",
                  "type": "bool"
                }
              ],
              "internalType": "struct IRobotStateEmitter.NamedBool[]",
              "name": "bools",
              "type": "tuple[]"
            }
          ],
          "internalType": "struct IRobotStateEmitter.StateChangePayload",
          "name": "",
          "type": "tuple"
        }
      ],
      "stateMutability": "view",
      "type": "function"
    },
    {
      "inputs": [],
      "name": "getTotalLiquidityShares",
      "outputs": [
        {
          "internalType": "string",
          "name": "",
          "type": "string"
        }
      ],
      "stateMutability": "view",
      "type": "function"
    },
    {
      "inputs": [],
      "name": "isActive",
      "outputs": [
        {
          "internalType": "bool",
          "name": "",
          "type": "bool"
        }
      ],
      "stateMutability": "view",
      "type": "function"
    },
    {
      "inputs": [
        {
          "internalType": "address",
          "name": "",
          "type": "address"
        }
      ],
      "name": "liquidityShare",
      "outputs": [
        {
          "internalType": "uint256",
          "name": "",
          "type": "uint256"
        }
      ],
      "stateMutability": "view",
      "type": "function"
    },
    {
      "inputs": [],
      "name": "owner",
      "outputs": [
        {
          "internalType": "address",
          "name": "",
          "type": "address"
        }
      ],
      "stateMutability": "view",
      "type": "function"
    },
    {
      "inputs": [
        {
          "internalType": "address",
          "name": "token",
          "type": "address"
        }
      ],
      "name": "price",
      "outputs": [
        {
          "internalType": "string",
          "name": "",
          "type": "string"
        }
      ],
      "stateMutability": "view",
      "type": "function"
    },
    {
      "inputs": [
        {
          "internalType": "address",
          "name": "token",
          "type": "address"
        }
      ],
      "name": "priceUint",
      "outputs": [
        {
          "internalType": "uint256",
          "name": "",
          "type": "uint256"
        }
      ],
      "stateMutability": "view",
      "type": "function"
    },
    {
      "inputs": [
        {
          "internalType": "string",
          "name": "amount",
          "type": "string"
        }
      ],
      "name": "removeLiquidity",
      "outputs": [],
      "stateMutability": "nonpayable",
      "type": "function"
    },
    {
      "inputs": [
        {
          "internalType": "uint256",
          "name": "amount",
          "type": "uint256"
        }
      ],
      "name": "removeLiquidityUint",
      "outputs": [],
      "stateMutability": "nonpayable",
      "type": "function"
    },
    {
      "inputs": [],
      "name": "renounceOwnership",
      "outputs": [],
      "stateMutability": "nonpayable",
      "type": "function"
    },
    {
      "inputs": [
        {
          "internalType": "address",
          "name": "owner_",
          "type": "address"
        },
        {
          "internalType": "string",
          "name": "customRules",
          "type": "string"
        }
      ],
      "name": "robotContractInit",
      "outputs": [],
      "stateMutability": "nonpayable",
      "type": "function"
    },
    {
      "inputs": [
        {
          "internalType": "string",
          "name": "feeFloat",
          "type": "string"
        }
      ],
      "name": "setFee",
      "outputs": [],
      "stateMutability": "nonpayable",
      "type": "function"
    },
    {
      "inputs": [
        {
          "internalType": "uint256",
          "name": "newFee",
          "type": "uint256"
        }
      ],
      "name": "setFeeUint",
      "outputs": [],
      "stateMutability": "nonpayable",
      "type": "function"
    },
    {
      "inputs": [
        {
          "internalType": "address",
          "name": "emitter",
          "type": "address"
        }
      ],
      "name": "setRobotStateEmitter",
      "outputs": [],
      "stateMutability": "nonpayable",
      "type": "function"
    },
    {
      "inputs": [
        {
          "internalType": "address",
          "name": "token1Addr",
          "type": "address"
        },
        {
          "internalType": "address",
          "name": "token2Addr",
          "type": "address"
        }
      ],
      "name": "setTokens",
      "outputs": [],
      "stateMutability": "nonpayable",
      "type": "function"
    },
    {
      "inputs": [],
      "name": "status",
      "outputs": [
        {
          "internalType": "address[2]",
          "name": "tokens",
          "type": "address[2]"
        },
        {
          "internalType": "string",
          "name": "liquidity1",
          "type": "string"
        },
        {
          "internalType": "string",
          "name": "liquidity2",
          "type": "string"
        },
        {
          "internalType": "bool",
          "name": "active",
          "type": "bool"
        },
        {
          "internalType": "string",
          "name": "fee",
          "type": "string"
        }
      ],
      "stateMutability": "view",
      "type": "function"
    },
    {
      "inputs": [
        {
          "internalType": "address",
          "name": "token",
          "type": "address"
        },
        {
          "internalType": "string",
          "name": "amountIn",
          "type": "string"
        }
      ],
      "name": "swap",
      "outputs": [],
      "stateMutability": "nonpayable",
      "type": "function"
    },
    {
      "inputs": [
        {
          "internalType": "address",
          "name": "token",
          "type": "address"
        },
        {
          "internalType": "uint256",
          "name": "amountIn",
          "type": "uint256"
        }
      ],
      "name": "swapUint",
      "outputs": [],
      "stateMutability": "nonpayable",
      "type": "function"
    },
    {
      "inputs": [],
      "name": "totalLiquidityShares",
      "outputs": [
        {
          "internalType": "uint256",
          "name": "",
          "type": "uint256"
        }
      ],
      "stateMutability": "view",
      "type": "function"
    },
    {
      "inputs": [
        {
          "internalType": "address",
          "name": "newOwner",
          "type": "address"
        }
      ],
      "name": "transferOwnership",
      "outputs": [],
      "stateMutability": "nonpayable",
      "type": "function"
    }
  ],
  "bytecode": "0x60c06040818152346200067157600090620052268038038091620000248287620006a0565b85398301916060848403126200039a576200003f84620006c4565b6020858101519095906001600160401b0390818111620003cb57820191601f908782850112156200066d5783518381116200065957875194601f19996200008d8c8c878601160188620006a0565b8287528b8383010111620006555791620000b38992620000ba948d808a019101620006d9565b01620006c4565b91865194878601868110838211176200064157885260039283875262616d6d60e81b8b8801527ff0c57e16840df040f15088dc2f81fe391c3923bec73e23a9662efc9c229c6a009a8b549260ff848c1c16158585169485158062000639575b600180971490816200062e575b15908162000624575b5062000613576001600160401b0319811686178f558e9082620005f4575b50506200015962000725565b6200016362000725565b3315620005dc57908b9c9d838c9d9b9c937f9016d09d72d40fdae2fd8ceac6b6234c7706214fd39c1cd1e609a0528c1993009c8d549d8e339060018060a01b031916179055519060018060a01b039d8e967f8be0079c531659141344cd1fd0a4f28419497f9722a3daafe3b4186f6b6457e0883393169180a36200059d575b50505016608052865184811162000589578a548481811c911680156200057e575b838210146200056a5783811162000522575b508082848211600114620004c3578c91620004b7575b5060001982881b1c191690841b178a555b8851938411620004a35784548381811c9116801562000498575b82821014620004845782811162000440575b50899a9b88999a9897985081928511600114620003db575050829182918b93620003cf575b501b9160001990841b1c19161790555b3060a0521690813b15620003cb57620002f48592839288519485809481936309a7fd2760e11b835230600484015260606024840152620002e1606484018c620006fe565b83810360031901604485015290620006fe565b03925af18015620003c157620003ab575b5080608051169060a05116813b15620003a75791839162000349938387518096819582946386eb164760e01b845260048401528a60248401526044830190620006fe565b03925af180156200039d5762000382575b8251614abe9081620007688239608051816111e3015260a05181818161061a01526109140152f35b6200038e829162000676565b6200039a57806200035a565b80fd5b83513d84823e3d90fd5b8380fd5b620003b99093919362000676565b913862000305565b85513d86823e3d90fd5b8480fd5b8a01519250386200028d565b84939492919216858c52828c20928c905b8c838310620004265750505083116200040d575b5050811b0190556200029d565b89015160001983861b60f8161c19169055388062000400565b84015185558b9950938601939283019290810190620003ec565b858b52818b208380870160051c8201928488106200047a575b0160051c01905b8181106200046f575062000268565b8b8155840162000460565b9250819262000459565b634e487b7160e01b8b52602260045260248bfd5b90607f169062000256565b634e487b7160e01b8a52604160045260248afd5b9050880151386200022b565b8c908f879416828052858320925b868d8383106200050c575050508311620004f3575b5050811b018a556200023c565b8a0151600019838a1b60f8161c191690553880620004e6565b84015185558996909401939283019201620004d1565b8b8052828c208480840160051c82019285851062000560575b0160051c019085905b8281106200055457505062000215565b8d815501859062000544565b925081926200053b565b634e487b7160e01b8c52602260045260248cfd5b90607f169062000203565b634e487b7160e01b8b52604160045260248bfd5b7fc7f505b2f371ae2175ee4913f4499e1f2633a7b5936321eed1cdaeb6115181d29268ff0000000000000000198154169055878152a1388381620001e2565b8b51631e4fbdf760e01b8152600481018c9052602490fd5b6001600160481b031916680100000000000000011790558d386200014d565b8c5163f92ee8a960e01b8152600490fd5b905015386200012f565b303b15915062000126565b508162000119565b634e487b7160e01b88526041600452602488fd5b8780fd5b634e487b7160e01b87526041600452602487fd5b8580fd5b600080fd5b6001600160401b0381116200068a57604052565b634e487b7160e01b600052604160045260246000fd5b601f909101601f19168101906001600160401b038211908210176200068a57604052565b51906001600160a01b03821682036200067157565b60005b838110620006ed5750506000910152565b8181015183820152602001620006dc565b906020916200071981518092818552858086019101620006d9565b601f01601f1916010190565b60ff7ff0c57e16840df040f15088dc2f81fe391c3923bec73e23a9662efc9c229c6a005460401c16156200075557565b604051631afcd79f60e31b8152600490fdfe60406080815260048036101561001457600080fd5b600091823560e01c91826304e9220f146124515782630902f1ac146123695782630950c524146123405782630c6bb892146123135782630f15f4c01461217c5782631234ec7d14612144578263145c184814611d52578263200d2ed214611bdb57826322f3e2d414611bb55782632940325f14611b745782632c22551a14611ad157826346e1047b146117775782635a9b0b89146114db578263715018a6146114705782637a5b4f591461138d57826387cd5b201461136e5782638803d49a146113515782638da5cb5b1461131b578263938598ef14611212578263a3d5dbe6146111ce578263ab600b7e14610d2b578263aea9107814610b6a578263b6cafe91146109e2578263bc29f0f714610943578263c6f864e3146108ff578263c732f4b014610581578263cbc7854e146102ac578263ced72f8714610287578263d0ad7b28146101d95750508063e52e78c3146101a75763f2fde38b1461017857600080fd5b346101a45760203660031901126101a4576101a1610194612801565b61019c6128b8565b612906565b80f35b80fd5b50346101a45760803660031901126101a4576101a16101c4612801565b6101cc612832565b606435916024359061349d565b90915034610283578260031936011261028357600f54600554835163313ce56760e01b81529260209184919082906001600160a01b03165afa918215610276579061022f92916102429592610246575b50612bef565b9051918291602083526020830190612560565b0390f35b61026891925060203d811161026f575b6102608183612a2a565b810190612a4b565b9038610229565b503d610256565b50505051903d90823e3d90fd5b8280fd5b8382346102a857816003193601126102a8576102429061022f600b54612ae0565b5080fd5b8390346102a857826003193601126102a8576102c6612801565b926102cf61281c565b916102d86128b8565b80549460ff8660a01c166105725760095415801590610567575b610558576001600160a01b03908116958615801561054e575b8015610543575b61053357859660055495836001600160601b0360a01b9183838a16176005551691826006549281818516176006558281600754161760075560085416176008557f51278cfe696b5a9595ada5bd0281911ab71445bc087ca9393087ea5c7b6edf30878051838152856020820152a188610389614834565b981617908651926395d89b4160e01b918285528a858981875afa94851561052957908b91829661050d575b508951956103c18761297a565b6103c9613317565b875260208701526103e98a8c01968751906103e38261323a565b5261323a565b50161792875191825289828881875afa918215610503579161043f916104849594938c926104de575b5089519161041f8361297a565b61042761333d565b83526020830152519061043982613247565b52613247565b5086519061044c8261297a565b610454613363565b8252602082015261046f60608901918251906103e38261323a565b5086519161047c8361297a565b61042761338c565b501692833b156104da576104ae93859283855180978195829463ef1fe0af60e01b845283016125b2565b03925af19081156104d157506104c15750f35b6104ca906129ab565b6101a45780f35b513d84823e3d90fd5b8480fd5b6104fc9192508c3d8091833e6104f48183612a2a565b8101906132b9565b908d610412565b88513d8c823e3d90fd5b6105229196503d8084833e6104f48183612a2a565b948d6103b4565b89513d8d823e3d90fd5b8351630f58058360e11b81528390fd5b508185168714610312565b508185161561030b565b50905163236731ef60e11b8152fd5b50600a5415156102f2565b509051634bc7cd8560e01b8152fd5b909150346102835761059236612875565b90917ff0c57e16840df040f15088dc2f81fe391c3923bec73e23a9662efc9c229c6a009384549360ff85881c1615936001600160401b0391828716968715806108f8575b600180991490816108ee575b1590816108e5575b506108d55767ffffffffffffffff19811688178955866108b6575b5061060e614986565b6001600160a01b0392307f00000000000000000000000000000000000000000000000000000000000000008516146108a6576106676001600160601b0360a01b9630888b5416178a5561065f614986565b61019c614986565b82116108935790899493929161067e60025461494c565b601f811161081d575b508590601f831160011461079a578691908361078f575b5050600019600383901b1c191690871b176002555b7fac0974bec39a17e36ba4a6b4d238ff944bacb478cbed5efcae784d7bf4f2ff805416808254938416178255836106e86140ab565b93161791823b1561078b57610713928492838a5180968195829463ef1fe0af60e01b845283016125b2565b03925af180156107815761076d575b505061072c578380f35b7fc7f505b2f371ae2175ee4913f4499e1f2633a7b5936321eed1cdaeb6115181d29260209268ff000000000000000019815416905551908152a13880808380f35b610776906129ab565b6104da578438610722565b86513d84823e3d90fd5b8380fd5b01359050388061069e565b600287528892917f405787fa12a823e0f2b7631cc41b3ba8828b3321ca811111fa75cd3aa3bb5ace9190601f198416895b818110610802575084116107e8575b505050811b016002556106b3565b0135600019600384901b60f8161c191690553880806107da565b8284013585558f9a508c9690940193602092830192016107cb565b909192939495600290527f405787fa12a823e0f2b7631cc41b3ba8828b3321ca811111fa75cd3aa3bb5ace601f840160051c81019160208510610889575b8c97969594939291601f8b920160051c01915b82811061087c575050610687565b9788558c978a910161086e565b909150819061085b565b634e487b7160e01b8a526041845260248afd5b89516308e3edd160e41b81528590fd5b68ffffffffffffffffff19166801000000000000000117885538610605565b895163f92ee8a960e01b81528590fd5b905015386105ea565b303b1591506105e2565b50866105d6565b8382346102a857816003193601126102a857517f00000000000000000000000000000000000000000000000000000000000000006001600160a01b03168152602090f35b83346101a457602091826003193601126102a8576001600160a01b039081610969612801565b168352600c84528385842054926005541686519283809263313ce56760e01b82525afa9283156109d7579161024293916109a893926109b85750612bef565b9251928284938452830190612560565b6109d0919250853d871161026f576102608183612a2a565b9086610229565b8551903d90823e3d90fd5b915034610283576080366003190112610283576109fd612801565b906001600160401b0390602435828111610b6657610a1e9036908601612848565b9190610a28612832565b93606435908111610b6257610a409036908801612848565b969091610a4b61405b565b15610b53576001600160a01b039487861687871614610b43578560055416908551809363313ce56760e01b93848352828760209788935afa918d8315610b385791610aad93918796959392610b17575b50610aa891923691612de9565b613096565b96600654169386518095819382525afa938415610b0e575091610ae593916101a198938a93610aeb575b5050610aa891923691612de9565b9261349d565b610aa893509081610b0792903d1061026f576102608183612a2a565b9138610ad7565b513d8a823e3d90fd5b610aa89250610b3290873d891161026f576102608183612a2a565b91610a9b565b8951903d90823e3d90fd5b845163c1ab6dc160e01b81528390fd5b508251637d404f3560e01b8152fd5b8780fd5b8580fd5b8390346102a857602091826003193601126101a457610b87612801565b6009549182158015610d21575b610d1157600554865163313ce56760e01b8082529390916001600160a01b03908116919088848981865afa938415610d07578594610ce8575b508060065416918a5196875289878a81865afa968715610cde578697610cbf575b5016908103610c61575050610c0f90610c09600a5491613f49565b90612e56565b93670de0b6b3a764000094858102958187041490151715610c4e57505061024292610c436109a893610c09610c4994613f49565b90612ac0565b612b9b565b634e487b7160e01b825260119052602490fd5b919492939103610caf5790610c09610c7892613f49565b92670de0b6b3a764000093848102948186041490151715610c4e575050610c4961024292610c436109a893610c09600a5491613f49565b865163c1ab6dc160e01b81528590fd5b610cd79197508a3d8c1161026f576102608183612a2a565b958b610bee565b8b513d88823e3d90fd5b610d00919450893d8b1161026f576102608183612a2a565b928a610bcd565b8a513d87823e3d90fd5b855163027b886560e61b81528490fd5b50600a5415610b94565b8382346102a857610d3b36612875565b92909460ff815460a01c16156111c057815163313ce56760e01b81526020966001600160a01b03948516959190888285818a5afa9182156111b65790610d90939291899261119b5750610aa891923691612de9565b9383600554169283928560065416956009549687600a549788966001908c1561118b5780850361116c575050505094959987948a955b600b5461271090810381811161115957610de3610dea918e612e56565b9283612e56565b9d818102918183041490151715611146578c9d610c438d9e9a9b9c9d9493610e1193612e76565b9a8b91610e1c6148cd565b98156110b757505050610e3190600954612e76565b600955610e4089600a54612e69565b600a55610e4f8a601154612e76565b80601155868360075416916024875180948193634839924760e11b8352898301525afa9081156110ad5790610eac918891611093575b50855190610e928261297a565b610e9a613e60565b8252838201528651906103e38261323a565b505b610eb6613447565b82600754169060248860095493885192838092634839924760e11b978883528b8301525afa9081156110895790610f0e92918a9161106f575b50875191610efc8361297a565b82528482015287519061043982613247565b50610f17613472565b90878460085416916024600a54918951948593849283528a8301525afa9081156110655791610f7191610fa994938a9161104b575b50875191610f598361297a565b825283820152875190610f6b82613257565b52613257565b50610f7d601054612e20565b9081601055855191610f8e8361297a565b610f96613e8a565b835281830152860151906103e38261323a565b508251338152602081018a9052604081018990527f18704ae982dcd24a1beeeed3ecf045ab0520d7b7519b97adf3e4f40bf7efe33990606090a181541692833b156104da5761100e93859283855180978195829463ef1fe0af60e01b845283016125b2565b03925af19081156104d15750611037575b50506101a193611030913390613f72565b3390614010565b611040906129ab565b6104da57848661101f565b61105f91503d808c833e6104f48183612a2a565b8f610f4c565b86513d8a823e3d90fd5b61108391503d808c833e6104f48183612a2a565b8f610eef565b87513d8b823e3d90fd5b6110a791503d808a833e6104f48183612a2a565b8d610e85565b85513d89823e3d90fd5b6110cc936110c491612e76565b600a55612e69565b6009556110db8a601254612e76565b80601255868360085416916024875180948193634839924760e11b8352898301525afa9081156110ad579061112691889161112c575b5085519061111e8261297a565b610e9a613e36565b50610eae565b61114091503d808a833e6104f48183612a2a565b8d611111565b634e487b7160e01b8d526011865260248dfd5b634e487b7160e01b8e526011875260248efd5b929d939991985096918814610dc657855163c1ab6dc160e01b81528590fd5b875163162908e360e11b81528790fd5b610aa89250610b32908b3d8d1161026f576102608183612a2a565b85513d8a823e3d90fd5b90516313d63de960e31b8152fd5b8382346102a857816003193601126102a857517f00000000000000000000000000000000000000000000000000000000000000006001600160a01b03168152602090f35b8382346102a85760203660031901126102a85782356001600160401b0381116102835761125761124861125c9236908701612848565b6112506128b8565b3691612de9565b612e83565b906112656128b8565b6103e8821161130c57829382600b557f20461e09b8e557b77e107939f9ce6544698123aad0fc964ac5cc59b7df2e608f60208351858152a16112d86112b16112ab61478d565b94612ae0565b8351906112bd8261297a565b6112c561321b565b825260208201528451906103e38261323a565b5080546001600160a01b031692833b156104da576104ae93859283855180978195829463ef1fe0af60e01b845283016125b2565b5163cd4e616760e01b81528390fd5b8382346102a857816003193601126102a857600080516020614a698339815191525490516001600160a01b039091168152602090f35b8390346102a85760203660031901126102a8576101a1903561396a565b8382346102a857816003193601126102a857602090600f549051908152f35b5082346101a457806003193601126101a45750805160009182546113b08161494c565b8084529060019081811690811561144857506001146113ed575b50506113db82610242940383612a2a565b51918291602083526020830190612560565b600080805294507f290decd9548b62a8d60345a988386fc84ba6bc95484008f6362f93160ef3e5635b82861061143057505050918101602001916113db826113ca565b80546020878701810191909152909501948101611416565b610242965085925060209150926113db9360ff191682840152151560051b82010194506113ca565b83346101a457806003193601126101a4576114896128b8565b600080516020614a6983398151915280546001600160a01b031981169091556000906001600160a01b03167f8be0079c531659141344cd1fd0a4f28419497f9722a3daafe3b4186f6b6457e08280a380f35b5082346101a457806003193601126101a4575080516000917f9f2cbf14d45099f51bf985adb3c53b5e52f3a7db48a42b9fe7e952864c20df65828154946115218661494c565b92838352600196878116908160001461175557506001146116f5575b5061154a92500383612a2a565b805160025481600061155b8361494c565b808352928781169081156116d65750600114611675575b61157e92500382612a2a565b815193600090600354906115918261494c565b8088529181811690811561164c57506001146115ef575b6115d486610242878a6115e2896115c1838b0384612a2a565b8351968796606088526060880190612560565b908682036020880152612560565b9184830390850152612560565b6003600090815292507fc2575a0e9e593c00f959f8c92f12db2869c3395a3b0502d05e2516446f71f85b5b8284106116345750505084016020016115e26102426115a8565b80546020858a0181019190915290930192810161161a565b60ff19166020808a019190915292151560051b880190920192506115e2915061024290506115a8565b509060026000527f405787fa12a823e0f2b7631cc41b3ba8828b3321ca811111fa75cd3aa3bb5ace90866000925b8284106116bc5750505090602061157e92820101611572565b6020929450805483858801015201910190918684936116a3565b6020925061157e94915060ff191682840152151560051b820101611572565b600090815291929050857fdcc206f99ae966222e0d6832d40f57fbf12f52e8daee3044f47ed28e289f31d75b82841061173b5750505090602061154a928201018661153d565b602092945080548385890101520191019091858593611721565b90506020925061154a94915060ff191682840152151560051b8201018661153d565b8390346102a857826003193601126102a857611791612801565b60249384359260ff815460a01c16156111c05760018060a01b039283600554169283928560065416956009549687600a549788966001908c1561118b578516848103611ab2575050505094959987948a955b600b54612710908103818111611aa057610de3611800918e612e56565b9d818102918183041490151715611a8e578c9d610c438d9e9a9b9c9d949361182793612e76565b9a8b916118326148cd565b9815611a085750505061184790600954612e76565b60095561185689600a54612e69565b600a556118658a601154612e76565b806011558683600754169183875180948193634839924760e11b8352898301525afa9081156110ad57906118c29188916119ee575b508551906118a78261297a565b6118af613e60565b825260208201528651906103e38261323a565b505b6118cc613447565b90826007541691818860095494885192838092634839924760e11b988983528b8301525afa908115611089579061192592918a916119d4575b508751916119128361297a565b8252602082015287519061043982613247565b508661192f613472565b92846008541692600a5491885194859384928352898301525afa9081156110ad579061197d929188916119ba575b5085519161196a8361297a565b82526020820152855190610f6b82613257565b50610fa961198c601054612e20565b8060105584519061199c8261297a565b6119a4613e8a565b825260208201526020860151906103e38261323a565b6119ce91503d808a833e6104f48183612a2a565b8d61195d565b6119e891503d808c833e6104f48183612a2a565b8f611905565b611a0291503d808a833e6104f48183612a2a565b8d61189a565b611a15936110c491612e76565b600955611a248a601254612e76565b806012558683600854169183875180948193634839924760e11b8352898301525afa9081156110ad5790611a6e918891611a74575b50855190611a668261297a565b6118af613e36565b506118c4565b611a8891503d808a833e6104f48183612a2a565b8d611a59565b634e487b7160e01b8d5260118652838dfd5b634e487b7160e01b8e5260118752848efd5b929d9399919850969188146117e357855163c1ab6dc160e01b81528590fd5b9150346102835760203660031901126102835781356001600160401b03811161078b57611b019036908401612848565b600554835163313ce56760e01b8152919460209183919082906001600160a01b03165afa928315611b6b5750916101a19391611b4a938692611b4f5750610aa891923691612de9565b61396a565b610aa89250610b329060203d811161026f576102608183612a2a565b513d86823e3d90fd5b8390346102a85760203660031901126102a857611b8f612801565b611b976128b8565b81546001600160a01b0319166001600160a01b039190911617905580f35b9083346101a457806003193601126101a4575060ff6020925460a01c1690519015158152f35b9083346101a457806003193601126101a457818051611bf98161297a565b369037815192611c088461297a565b602460018060a01b039384600554168652846006541694602095868801528060075416938560095495845195868092634839924760e11b998a8352868301525afa938415611d2c578694611d36575b50858260085416956024600a5491865198899384928352868301525afa948515611d2c578695611d10575b50969496959295939190935493611c9a600b54612ae0565b8251988997919591885b60028310611cf657505050505060ff91611ccf869760c0611cdd9461024299015260c0890190612560565b908782036060890152612560565b9260a01c161515608085015283820360a0850152612560565b8151851681528b9950600190920191908301908301611ca4565b611d259195503d8088833e6104f48183612a2a565b9388611c82565b83513d88823e3d90fd5b611d4b9194503d8088833e6104f48183612a2a565b9288611c57565b8382346102a85760603660031901126102a857611d6d612801565b92611d7661281c565b916044356001600160401b0381116104da57611d959036908401612848565b9390611d9f6128b8565b83549460ff8660a01c16612134577f9b779b17422d0df92223018b32b4d1fa46e071723d6817e2486d003becc55f009560028754146121245760028755611de46128b8565b60095415801590612119575b612109576001600160a01b03988916801580156120ff575b80156120f4575b6120e457600554948a6001600160601b0360a01b9183838916176005551691826006549281818516176006558281600754161760075560085416176008557f51278cfe696b5a9595ada5bd0281911ab71445bc087ca9393087ea5c7b6edf30888051838152856020820152a18a611e84614834565b971617908751926395d89b4160e01b918285528c858c81875afa9485156120da57908d9182966120be575b508a5195611ebc8761297a565b611ec4613317565b87526020870152611ede8b8b01968751906103e38261323a565b5016179288519182528b828b81875afa9182156120b4578d959492611f559492611f18928f8093612097575b50508b519161041f8361297a565b50885190611f258261297a565b611f2d613363565b82526020820152611f4860608901918251906103e38261323a565b5088519161047c8361297a565b5016803b15610b62578785518092818381611f7d63ef1fe0af60e01b9a8b83528d83016125b2565b03925af180156111b65790889161207f575b5050611fa191611257916112506128b8565b611fa96128b8565b6103e8811161207057859681600b979697557f20461e09b8e557b77e107939f9ce6544698123aad0fc964ac5cc59b7df2e608f60208551848152a161201f611ff8611ff261478d565b93612ae0565b8551906120048261297a565b61200c61321b565b825260208201528351906103e38261323a565b50845416803b15610b665761204394868094865197889586948593845283016125b2565b03925af19081156104d1575061205c575b506001825580f35b612065906129ab565b6102a8578183612054565b50505163cd4e616760e01b8152fd5b612088906129ab565b612093578689611f8f565b8680fd5b6120ac9293503d8091833e6104f48183612a2a565b90388f611f0a565b89513d8e823e3d90fd5b6120d39196503d8084833e6104f48183612a2a565b948f611eaf565b8a513d8f823e3d90fd5b8551630f58058360e11b81528790fd5b508985168114611e0f565b5089851615611e08565b845163236731ef60e11b81528690fd5b50600a541515611df0565b8451633ee5aeb560e01b81528690fd5b50505051634bc7cd8560e01b8152fd5b8382346102a85760203660031901126102a85760209181906001600160a01b0361216c612801565b168152600c845220549051908152f35b909150346102835782600319360112610283576121976128b8565b80549160ff8360a01c16612306576121ad61405b565b156122f9576009541580156122ef575b6122e25760ff60a01b198316600160a01b17808355916121db614080565b508151916121e8836129d9565b600083528051916121f8836129d9565b60008352815195612208876129d9565b60008752825195612218876129d9565b600087528351966122288861297a565b6001885260005b60208b818310156122535750906020916122476133cc565b90828c0101520161222f565b999150506122b092918a8a9988519961226b8b6129be565b8a5260208a01528789015260608801526080870190815260ff8651926122908461297a565b612298613297565b845260a01c161515602083015251906103e38261323a565b506001600160a01b031692833b156104da576104ae93859283855180978195829463ef1fe0af60e01b845283016125b2565b5163027b886560e61b8152fd5b50600a54156121bd565b51637d404f3560e01b8152fd5b51634bc7cd8560e01b8152fd5b8382346102a85760203660031901126102a857602090612339612334612801565b613eae565b9051908152f35b8382346102a857816003193601126102a8576102429061235e6140ab565b9051918291826125b2565b9083346101a457806003193601126101a457600954600554835163313ce56760e01b80825295602094936001600160a01b0393919291869083908590829088165afa91821561244757916123c591879387926124285750612bef565b96600a5493600654169287518094819382525afa9283156109d757916102429493916123f693926124095750612bef565b6115e28451958587968752860190612560565b612421919250843d861161026f576102608183612a2a565b9087610229565b612440919250843d861161026f576102608183612a2a565b908a610229565b87513d87823e3d90fd5b91503461028357602036600319011261028357813561246e6128b8565b6103e8811161252f57808491600b557f20461e09b8e557b77e107939f9ce6544698123aad0fc964ac5cc59b7df2e608f60208451838152a16124e16124ba6124b461478d565b92612ae0565b8451906124c68261297a565b6124ce61321b565b825260208201528251906103e38261323a565b5083546001600160a01b0316803b15610283576125129483855180978195829463ef1fe0af60e01b845283016125b2565b03925af19081156104d15750612526575080f35b6101a1906129ab565b505163cd4e616760e01b8152fd5b60005b8381106125505750506000910152565b8181015183820152602001612540565b906020916125798151809281855285808601910161253d565b601f01601f1916010190565b6125af91602061259e8351604084526040840190612560565b920151906020818403910152612560565b90565b90602080835260c083019082519160a082860152825180915260e08501908260e08260051b8801019401916000905b8282106127d1575050505080830151601f199360409385878203018588015282518082528482019185808360051b8301019501926000915b83831061278c57505050505083810151918587820301606088015282518082528482019185808360051b8301019501926000915b83831061275a5750505050506060810151918587820301608088015282518082528482019185808360051b8301019501926000915b83831061270d575050505050608001519460a085828403019101528451928382528282019083808660051b8501019701956000935b8685106126c957505050505050505090565b90919293949596978680828585600195030188528b519082806126f384518b85528b850190612560565b93015115159101529a0195019501939695949291906126b7565b909192939587808a838d869d9e9c9d60019603018752826127388c5193845190808552840190612560565b9281878060a01b03910151169101529801930193019193929098979698612682565b90919293958780612779838d869d9e9c9d600196030187528a51612585565b980193019301919392909897969861264d565b909192939587808a838d869d9e9c9d6001960301875282806127b88d5194855190808652850190612560565b9301519101529801930193019193929098979698612619565b90919295939485806127ef60019360df198c82030186528a51612585565b980192019201909291959493956125e1565b600435906001600160a01b038216820361281757565b600080fd5b602435906001600160a01b038216820361281757565b604435906001600160a01b038216820361281757565b9181601f84011215612817578235916001600160401b038311612817576020838186019501011161281757565b906040600319830112612817576004356001600160a01b03811681036128175791602435906001600160401b038211612817576128b491600401612848565b9091565b600080516020614a69833981519152546001600160a01b03908116816128dc6149c7565b16036128e55750565b6024906128f06149c7565b60405163118cdaa760e01b815291166004820152fd5b6001600160a01b0390811690811561296157600080516020614a6983398151915280546001600160a01b031981168417909155167f8be0079c531659141344cd1fd0a4f28419497f9722a3daafe3b4186f6b6457e0600080a3565b604051631e4fbdf760e01b815260006004820152602490fd5b604081019081106001600160401b0382111761299557604052565b634e487b7160e01b600052604160045260246000fd5b6001600160401b03811161299557604052565b60a081019081106001600160401b0382111761299557604052565b602081019081106001600160401b0382111761299557604052565b608081019081106001600160401b0382111761299557604052565b606081019081106001600160401b0382111761299557604052565b90601f801991011681019081106001600160401b0382111761299557604052565b90816020910312612817575160ff811681036128175790565b6001600160401b03811161299557601f01601f191660200190565b60405190612a8c8261297a565b60018252600360fc1b6020830152565b604d8111612aaa57600a0a90565b634e487b7160e01b600052601160045260246000fd5b8115612aca570490565b634e487b7160e01b600052601260045260246000fd5b8015612b9257612afd6064612af6818404612c81565b9206612c81565b600281511015612b4457612b3f6040519182602091600360fc1b83830152612b2f81518092602195868601910161253d565b8101036001810184520182612a2a565b612afd565b9060216125af916040519381612b6486935180926020808701910161253d565b8201601760f91b6020820152612b83825180936020878501910161253d565b01036001810184520182612a2a565b506125af612a7f565b8015612b9257612bb8670de0b6b3a7640000612af6818404612c81565b601281511015612b4457612bea6040519182602091600360fc1b83830152612b2f81518092602195868601910161253d565b612bb8565b908115612c775760ff1690612c0382612a9c565b612c0d8183612ac0565b908015612aca57612af6612c2092612c81565b8281511015612c5657612c516040519182602091600360fc1b83830152612b2f81518092602195868601910161253d565b612c20565b915060216125af916040519381612b6486935180926020808701910161253d565b50506125af612a7f565b806000917a184f03e93ff9f4daa797ed6e38ed64bf6a1f01000000000000000080821015612ddb575b506d04ee2d6d415b85acef810000000080831015612dcc575b50662386f26fc1000080831015612dbd575b506305f5e10080831015612dae575b5061271080831015612d9f575b506064821015612d8f575b600a80921015612d85575b60019081602181860195612d1a87612a64565b96612d286040519889612a2a565b808852612d37601f1991612a64565b01366020890137860101905b612d4f575b5050505090565b600019019083906f181899199a1a9b1b9c1cb0b131b232b360811b8282061a835304918215612d8057919082612d43565b612d48565b9160010191612d07565b9190606460029104910191612cfc565b60049193920491019138612cf1565b60089193920491019138612ce4565b60109193920491019138612cd5565b60209193920491019138612cc3565b604093508104915038612caa565b929192612df582612a64565b91612e036040519384612a2a565b829481845281830111612817578281602093846000960137010152565b6000198114612aaa5760010190565b908151811015612e40570160200190565b634e487b7160e01b600052603260045260246000fd5b81810292918115918404141715612aaa57565b91908203918211612aaa57565b91908201809211612aaa57565b9081511561308457600091828080805b8451871015613034576001600160f81b0319601760f91b81612eb58a89612e2f565b511614612fdc57600360fc1b81612ecc8a89612e2f565b511610908115612fc2575b50612f885781612f2857600a90818102918183041490151715612aaa57612efe8786612e2f565b5160f81c90602f198201918211612aaa57612f2291612f1c91612e76565b96612e20565b95612e93565b9560028310612f3b575b612f2290612e20565b9192600a90818102918183041490151715612aaa57612f5a8386612e2f565b5160f81c602f198101908111612aaa57612f7a612f8091612f2293612e76565b94612e20565b929050612f32565b60405163df70480560e01b815260206004820152601160248201527024b73b30b634b21031b430b930b1ba32b960791b6044820152606490fd5b603960f81b9150612fd38988612e2f565b51161138612ed7565b509590612fee57612f22600191612e20565b60405163df70480560e01b815260206004820152601d60248201527f4d756c7469706c6520646563696d616c20706f696e747320666f756e640000006044820152606490fd5b949550509091505b600281106130615750606482029180830460641490151715612aaa576125af91612e76565b90600a90818102918183041490151715612aaa5761307f9091612e20565b61303c565b604051630626ad3360e01b8152600490fd5b91909180511561308457600060ff819416926130b184612a9c565b9382839284975b86518910156131d2576001600160f81b0319601760f91b816130da8c8b612e2f565b5116146131c057600360fc1b816130f18c8b612e2f565b5116109081156131a6575b50612f88578261314d57600a90818102918183041490151715612aaa576131238988612e2f565b5160f81c90602f198201918211612aaa576131479161314191612e76565b98612e20565b976130b8565b9783851061315f575b61314790612e20565b9394600a90818102918183041490151715612aaa5761317e8588612e2f565b5160f81c602f198101908111612aaa57612f1c61319e9161314793612e76565b949050613156565b603960f81b91506131b78b8a612e2f565b511611386130fc565b509791612fee57613147600192612e20565b949695509650505b8082106131f65750506125af92916131f191612e56565b612e76565b9093600a90818102918183041490151715612aaa576132159094612e20565b906131da565b604051906132288261297a565b600382526266656560e81b6020830152565b805115612e405760200190565b805160011015612e405760400190565b805160021015612e405760600190565b805160031015612e405760800190565b805160041015612e405760a00190565b805160051015612e405760c00190565b604051906132a48261297a565b600682526561637469766560d01b6020830152565b602081830312612817578051906001600160401b038211612817570181601f820112156128175780516132eb81612a64565b926132f96040519485612a2a565b81845260208284010111612817576125af916020808501910161253d565b604051906133248261297a565b600a825269746f6b656e314e616d6560b01b6020830152565b6040519061334a8261297a565b600a825269746f6b656e324e616d6560b01b6020830152565b604051906133708261297a565b600d82526c746f6b656e314164647265737360981b6020830152565b604051906133998261297a565b600d82526c746f6b656e324164647265737360981b6020830152565b6001600160401b0381116129955760051b60200190565b604051906133d98261297a565b6000602083606081520152565b604051906133f38261297a565b6015825274746f74616c4c6971756964697479486f6c6465727360581b6020830152565b604051906134248261297a565b6014825273746f74616c4c697175696469747953686172657360601b6020830152565b604051906134548261297a565b600f82526e746f6b656e314c697175696469747960881b6020830152565b6040519061347f8261297a565b600f82526e746f6b656e324c697175696469747960881b6020830152565b9392906134a861405b565b15613958576001600160a01b0392831694831691828614613926576134cb6149c7565b9282918092866006541692838114600014613938575050965b6005548616810361391c57505050915b60095480158015613912575b1561387157508460095582600a5584600f55808216600052600c602052846040600020555b61352e82613d7a565b604080516001600160a01b0385168152602081018890528082018690527fac1d76749e5447b7b16f5ab61447e1bd502f3bb4807af3b28e620d1700a6ee4590606090a1613579614080565b508051613585816129d9565b600092838252825191613597836129f4565b60038352845b6060811061385a57508351916135b2836129d9565b85835284516135c0816129d9565b8681528551906135cf826129d9565b8782528651956135de876129be565b865260209485870194855287870152606086015260808501526137f3575b50613605613417565b8560075416600f54918551634839924760e11b9384825260048201528781602481865afa9081156137e9579061365c929189916137cf575b5087519161364a8361297a565b8252858201528551906103e38261323a565b50613665613447565b9086600954602488518094819388835260048301525afa9081156137c557906136af929188916137ab575b5086519161369d8361297a565b82528482015284519061043982613247565b506136b8613472565b91858760085416926024600a549188519586938492835260048301525afa9182156137a157906137099392918792613785575b508551926136f88461297a565b8352820152825190610f6b82613257565b50836004541690813b1561078b5761373984928392855196878094819363ef1fe0af60e01b8352600483016125b2565b03925af191821561377b575050956137619161376a969761376c575b50838360055416613f72565b60065416613f72565b565b613775906129ab565b38613755565b51903d90823e3d90fd5b61379a9192503d8089833e6104f48183612a2a565b90386136eb565b85513d88823e3d90fd5b6137bf91503d808a833e6104f48183612a2a565b38613690565b86513d89823e3d90fd5b6137e391503d808b833e6104f48183612a2a565b3861363d565b87513d8a823e3d90fd5b83516137fe8161297a565b6001815282865b8181106138445750508152600e54845161383d9290916138248361297a565b61382c6133e6565b83528483015251906103e38261323a565b50386135fc565b61384c6133cc565b828285010152018390613805565b602090613865614774565b8282870101520161359d565b94600a5490613889876138848385612e56565b612ac0565b808610156139005750506138b56138a76138da92613884878a612e56565b965b613884600f5489612e56565b828416600052600c60205260406000206138d0828254612e76565b9055600f54612e76565b600f556138e985600954612e76565b6009556138f883600a54612e76565b600a55613525565b6138b5919795506138da9250946138a9565b50600a5415613500565b91949250146134f4575b60405163c1ab6dc160e01b8152600490fd5b909891508660055416146134e45760405163c1ab6dc160e01b8152600490fd5b604051637d404f3560e01b8152600490fd5b908115613d68576139796149c7565b60018060a01b03908181169160008381526020600c8152604090818320548811613d57576139e96139ac89600954612e56565b986139ca6139bd600f54809c612ac0565b9a61388483600a54612e56565b978552600c83528385206139df828254612e69565b9055600f54612e69565b600f556139f888600954612e69565b600955613a0786600a54612e69565b600a55613a1385613d7a565b82516001600160a01b0387168152602081018a9052604081018890529091907f96cd817c6329656790ef8fba7675405193677d39619571282f5e21f3a98cd05990606090a18115613d4f5760ff60015b1690613a6d614080565b50613a77826133b5565b91613a8485519384612a2a565b808352613a93601f19916133b5565b0181865b828110613d3957505050835192613aad846129f4565b6003845281865b60608110613d235750508451613ac9816129d9565b8681528551613ad7816129d9565b878152865191613ae6836129d9565b888352875196613af5886129be565b87528487019586528787015260608601526080850152613b13613417565b8760075416600f54918751634839924760e11b9384825260048201528981602481865afa908115613d195790613b6a92918b91613cff575b50895191613b588361297a565b8252868201528751906103e38261323a565b50613b73613447565b908860095460248a518094819388835260048301525afa908115613cf55790613bbd92918a91613cdb575b50885191613bab8361297a565b82528582015286519061043982613247565b50613bc6613472565b90878960085416916024600a54918a519485938492835260048301525afa9081156137e95790613c1792918991613cc1575b50875191613c058361297a565b825284820152855190610f6b82613257565b50613c8e575b5050836004541690813b1561078b57613c4e84928392855196878094819363ef1fe0af60e01b8352600483016125b2565b03925af191821561377b57505095613c769161376a9697613c7f575b50838360055416614010565b60065416614010565b613c88906129ab565b38613c6a565b613cb991600e54855192613ca18461297a565b613ca96133e6565b845283015251906103e38261323a565b503880613c1d565b613cd591503d808b833e6104f48183612a2a565b38613bf8565b613cef91503d808c833e6104f48183612a2a565b38613b9e565b88513d8b823e3d90fd5b613d1391503d808d833e6104f48183612a2a565b38613b4b565b89513d8c823e3d90fd5b613d2b614774565b828288010152018290613ab4565b613d416133cc565b828287010152018290613a97565b60ff84613a63565b815163969eca0f60e01b8152600490fd5b60405163162908e360e11b8152600490fd5b60018060a01b0316600090808252600d60205260ff604083205416600c602052604083205415811580613e2e575b15613dd95750508152600d60205260409020805460ff19166001179055600e54613dd190612e20565b600e55600190565b90915081613e26575b50613dea5790565b600d60205260408120805460ff19169055600e54908115613e12575060001901600e55600190565b634e487b7160e01b81526011600452602490fd5b905038613de2565b508015613da8565b60405190613e438261297a565b600e82526d185b5bdd5b9d0c94ddd85c1c195960921b6020830152565b60405190613e6d8261297a565b600e82526d185b5bdd5b9d0c54ddd85c1c195960921b6020830152565b60405190613e978261297a565b60088252676e756d537761707360c01b6020830152565b60095490811590818015613f3f575b613f2d576006546001600160a01b03918216919081168203613f02575050600a54670de0b6b3a76400008082029392508115918404141715612aaa576125af91612ac0565b600554160361392657670de0b6b3a7640000808302928304141715612aaa57600a546125af91612ac0565b60405163027b886560e61b8152600490fd5b50600a5415613ebd565b60ff16604d8111612aaa57600a0a90565b90816020910312612817575180151581036128175790565b6040516323b872dd60e01b81526001600160a01b039283166004820152306024820152604481019390935260209183916064918391600091165af190811561400457600091613fd6575b5015613fc457565b60405163022e258160e11b8152600490fd5b613ff7915060203d8111613ffd575b613fef8183612a2a565b810190613f5a565b38613fbc565b503d613fe5565b6040513d6000823e3d90fd5b60405163a9059cbb60e01b81526001600160a01b039283166004820152602481019390935260209183916044918391600091165af190811561400457600091613fd6575015613fc457565b6005546001600160a01b0390811615159081614075575090565b905060065416151590565b6040519061408d826129be565b81608060609182815282602082015282604082015282808201520152565b6140b3614080565b506005546006546001600160a01b03908116929181168015159284151592916140da614080565b50604080516140e881612a0f565b6002815260005b82811061475d575081519260e084018481106001600160401b038211176129955783526006845260005b60c08110614746575082519061412e82612a0f565b6002825260005b84811061472f575083519161414983612a0f565b6002835260005b85811061471857508451986141648a61297a565b60018a5260005b60208082101561418d57908b602092826141836133cc565b920101520161416b565b5050919395989699909294978851996141a58b6129be565b8a5261421d602097888c019081528a8c0195865260608c0197885260808c01998a526141f36010548c51906141d98261297a565b6141e1613e8a565b82528b8201528251906103e38261323a565b50600e54908b51916142048361297a565b61420c6133e6565b83528a830152519061043982613247565b508115614708578060075416600060115460248c5180948193634839924760e11b835260048301525afa90811561464a5790614283916000916146ef575b505b8a51906142698261297a565b614271613e60565b8252898201528b51906103e38261323a565b5082156146df578060085416600060125460248c5180948193634839924760e11b835260048301525afa90811561464a57906142e9916000916146c6575b505b8a51906142cf8261297a565b6142d7613e36565b8252898201528b519061043982613247565b506142f2613417565b82156146b55781600754166000600f5460248d5180948193634839924760e11b835260048301525afa9081156146805790614350929160009161469c575b505b8b519161433e8361297a565b8252898201528b5190610f6b82613257565b50614359613447565b821561468b578160075416600060095460248d5180948193634839924760e11b835260048301525afa90811561468057906143bd9291600091614667575b505b8b51916143a58361297a565b8252898201528b51906143b782613267565b52613267565b506143c6613472565b90831561465557600854166000600a5460248c5180948193634839924760e11b835260048301525afa90811561464a579061442a9291600091614631575b505b8a51916144128361297a565b8252888201528a519061442482613277565b52613277565b50614465614439600b54612ae0565b8951906144458261297a565b61444d61321b565b8252888201528a519061445f82613287565b52613287565b506000901561461b575086516395d89b4160e01b8152600081600481875afa90811561461057906144c0916000916145f7575b505b8851906144a68261297a565b6144ae613317565b8252878201528351906103e38261323a565b50600090156145d0575085516395d89b4160e01b81526000816004818d5afa9081156145c5579261452a6145779593614551936145a89b9c9d966000916145ac575b50905b8a51916145118361297a565b61451961333d565b835289830152519061043982613247565b508751906145378261297a565b61453f613363565b8252868201528251906103e38261323a565b5085519161455e8361297a565b61456661338c565b835284830152519061043982613247565b5060ff60045460a01c1692519261458d8461297a565b614595613297565b845215159083015251906103e38261323a565b5090565b6145bf913d8091833e6104f48183612a2a565b38614502565b87513d6000823e3d90fd5b6145a89798999261452a6145779593614551938a51906145ef826129d9565b815290614505565b61460a913d8091833e6104f48183612a2a565b38614498565b88513d6000823e3d90fd5b87516144c09161462a826129d9565b815261449a565b614644913d8091833e6104f48183612a2a565b38614404565b8a513d6000823e3d90fd5b5061442a90614662612a7f565b614406565b61467a913d8091833e6104f48183612a2a565b38614397565b8b513d6000823e3d90fd5b6143bd90614697612a7f565b614399565b6146af913d8091833e6104f48183612a2a565b38614330565b614350906146c1612a7f565b614332565b6146d9913d8091833e6104f48183612a2a565b386142c1565b6142e96146ea612a7f565b6142c3565b614702913d8091833e6104f48183612a2a565b3861425b565b614283614713612a7f565b61425d565b6020906147236133cc565b82828701015201614150565b60209061473a614774565b82828601015201614135565b602090614751614774565b82828801015201614119565b6020906147686133cc565b828285010152016140ef565b604051906147818261297a565b60606020838281520152565b614795614080565b5060408051906147a4826129d9565b600082528051906147b48261297a565b6001825260005b6020808210156147dd57906020916147d1614774565b908286010152016147bb565b505091909180516147ed816129d9565b600081528151916147fd836129d9565b6000835280519361480d856129d9565b6000855281519561481d876129be565b865260208601528401526060830152608082015290565b61483c614080565b506040805161484a816129d9565b6000815281519161485a836129d9565b60008352805161486981612a0f565b6002815260005b8281106148b6575081519161488483612a0f565b6002835260005b81811061489f575080519361480d856129d9565b6020906148aa6133cc565b8282870101520161488b565b6020906148c1614774565b82828501015201614870565b6148d5614080565b50604080516148e38161297a565b6001815260005b6020908181101561490c576020916149006133cc565b908285010152016148ea565b505081519161491a836129f4565b6003835260005b60608110614935575080516147ed816129d9565b602090614940614774565b82828701015201614921565b90600182811c9216801561497c575b602083101461496657565b634e487b7160e01b600052602260045260246000fd5b91607f169161495b565b60ff7ff0c57e16840df040f15088dc2f81fe391c3923bec73e23a9662efc9c229c6a005460401c16156149b557565b604051631afcd79f60e31b8152600490fd5b7fac0974bec39a17e36ba4a6b4d238ff944bacb478cbed5efcae784d7bf4f2ff80546001600160a01b03908116338103614a625760206004916040519283809263348397e760e21b82525afa90811561400457600091614a28575b50905090565b6020813d8211614a5a575b81614a4060209383612a2a565b810103126102a8575191821682036101a457508038614a22565b3d9150614a33565b5050339056fe9016d09d72d40fdae2fd8ceac6b6234c7706214fd39c1cd1e609a0528c199300a2646970667358221220083b8ce374fd180fac7f4f9a2bbaad91b39c11230ef720cc48a34117c230554964736f6c63430008140033",
  "linkReferences": {},
  "deployedLinkReferences": {}
}