{
  "_format": "hh-sol-artifact-1",
  "contractName": "CounterPrimitive",
  "sourceName": "contracts/primitives/CounterPrimitive.sol",
  "abi": [
    {
      "inputs": [
        {
          "internalType": "address",
          "name": "llmPrecompile",
          "type": "address"
        },
        {
          "internalType": "string",
          "name": "metadata",
          "type": "string"
        },
        {
          "internalType": "address",
          "name": "primitiveStorageAddress",
          "type": "address"
        }
      ],
      "stateMutability": "nonpayable",
      "type": "constructor"
    },
    {
      "inputs": [],
      "name": "InvalidInitialization",
      "type": "error"
    },
    {
      "inputs": [],
      "name": "NotInitializing",
      "type": "error"
    },
    {
      "inputs": [],
      "name": "OnlyProxy",
      "type": "error"
    },
    {
      "inputs": [
        {
          "internalType": "address",
          "name": "owner",
          "type": "address"
        }
      ],
      "name": "OwnableInvalidOwner",
      "type": "error"
    },
    {
      "inputs": [
        {
          "internalType": "address",
          "name": "account",
          "type": "address"
        }
      ],
      "name": "OwnableUnauthorizedAccount",
      "type": "error"
    },
    {
      "anonymous": false,
      "inputs": [
        {
          "indexed": false,
          "internalType": "uint64",
          "name": "version",
          "type": "uint64"
        }
      ],
      "name": "Initialized",
      "type": "event"
    },
    {
      "anonymous": false,
      "inputs": [
        {
          "indexed": true,
          "internalType": "address",
          "name": "previousOwner",
          "type": "address"
        },
        {
          "indexed": true,
          "internalType": "address",
          "name": "newOwner",
          "type": "address"
        }
      ],
      "name": "OwnershipTransferred",
      "type": "event"
    },
    {
      "inputs": [],
      "name": "LLM_PRECOMPILE",
      "outputs": [
        {
          "internalType": "contract ILLM",
          "name": "",
          "type": "address"
        }
      ],
      "stateMutability": "view",
      "type": "function"
    },
    {
      "inputs": [],
      "name": "counter",
      "outputs": [
        {
          "internalType": "uint256",
          "name": "",
          "type": "uint256"
        }
      ],
      "stateMutability": "view",
      "type": "function"
    },
    {
      "inputs": [
        {
          "internalType": "uint256",
          "name": "number",
          "type": "uint256"
        }
      ],
      "name": "decrease",
      "outputs": [
        {
          "internalType": "uint256",
          "name": "",
          "type": "uint256"
        }
      ],
      "stateMutability": "nonpayable",
      "type": "function"
    },
    {
      "inputs": [],
      "name": "getCounter",
      "outputs": [
        {
          "internalType": "uint256",
          "name": "",
          "type": "uint256"
        }
      ],
      "stateMutability": "view",
      "type": "function"
    },
    {
      "inputs": [],
      "name": "getInfo",
      "outputs": [
        {
          "internalType": "string",
          "name": "contractName",
          "type": "string"
        },
        {
          "internalType": "string",
          "name": "customRules",
          "type": "string"
        },
        {
          "internalType": "string",
          "name": "primitiveName",
          "type": "string"
        }
      ],
      "stateMutability": "view",
      "type": "function"
    },
    {
      "inputs": [],
      "name": "getMetadata",
      "outputs": [
        {
          "internalType": "string",
          "name": "",
          "type": "string"
        }
      ],
      "stateMutability": "view",
      "type": "function"
    },
    {
      "inputs": [],
      "name": "getPrimitiveAddress",
      "outputs": [
        {
          "internalType": "address",
          "name": "",
          "type": "address"
        }
      ],
      "stateMutability": "view",
      "type": "function"
    },
    {
      "inputs": [],
      "name": "getRobotState",
      "outputs": [
        {
          "components": [
            {
              "components": [
                {
                  "internalType": "string",
                  "name": "name",
                  "type": "string"
                },
                {
                  "internalType": "string",
                  "name": "value",
                  "type": "string"
                }
              ],
              "internalType": "struct IRobotStateEmitter.NamedFloat[]",
              "name": "floats",
              "type": "tuple[]"
            },
            {
              "components": [
                {
                  "internalType": "string",
                  "name": "name",
                  "type": "string"
                },
                {
                  "internalType": "uint256",
                  "name": "value",
                  "type": "uint256"
                }
              ],
              "internalType": "struct IRobotStateEmitter.NamedUint[]",
              "name": "uints",
              "type": "tuple[]"
            },
            {
              "components": [
                {
                  "internalType": "string",
                  "name": "name",
                  "type": "string"
                },
                {
                  "internalType": "string",
                  "name": "value",
                  "type": "string"
                }
              ],
              "internalType": "struct IRobotStateEmitter.NamedString[]",
              "name": "strings",
              "type": "tuple[]"
            },
            {
              "components": [
                {
                  "internalType": "string",
                  "name": "name",
                  "type": "string"
                },
                {
                  "internalType": "address",
                  "name": "value",
                  "type": "address"
                }
              ],
              "internalType": "struct IRobotStateEmitter.NamedAddress[]",
              "name": "addresses",
              "type": "tuple[]"
            },
            {
              "components": [
                {
                  "internalType": "string",
                  "name": "name",
                  "type": "string"
                },
                {
                  "internalType": "bool",
                  "name": "value",
                  "type": "bool"
                }
              ],
              "internalType": "struct IRobotStateEmitter.NamedBool[]",
              "name": "bools",
              "type": "tuple[]"
            }
          ],
          "internalType": "struct IRobotStateEmitter.StateChangePayload",
          "name": "",
          "type": "tuple"
        }
      ],
      "stateMutability": "view",
      "type": "function"
    },
    {
      "inputs": [
        {
          "internalType": "uint256",
          "name": "number",
          "type": "uint256"
        }
      ],
      "name": "increase",
      "outputs": [
        {
          "internalType": "uint256",
          "name": "",
          "type": "uint256"
        }
      ],
      "stateMutability": "nonpayable",
      "type": "function"
    },
    {
      "inputs": [],
      "name": "owner",
      "outputs": [
        {
          "internalType": "address",
          "name": "",
          "type": "address"
        }
      ],
      "stateMutability": "view",
      "type": "function"
    },
    {
      "inputs": [],
      "name": "renounceOwnership",
      "outputs": [],
      "stateMutability": "nonpayable",
      "type": "function"
    },
    {
      "inputs": [],
      "name": "reset",
      "outputs": [
        {
          "internalType": "uint256",
          "name": "",
          "type": "uint256"
        }
      ],
      "stateMutability": "nonpayable",
      "type": "function"
    },
    {
      "inputs": [
        {
          "internalType": "address",
          "name": "owner_",
          "type": "address"
        },
        {
          "internalType": "string",
          "name": "customRules",
          "type": "string"
        }
      ],
      "name": "robotContractInit",
      "outputs": [],
      "stateMutability": "nonpayable",
      "type": "function"
    },
    {
      "inputs": [
        {
          "internalType": "address",
          "name": "emitter",
          "type": "address"
        }
      ],
      "name": "setRobotStateEmitter",
      "outputs": [],
      "stateMutability": "nonpayable",
      "type": "function"
    },
    {
      "inputs": [
        {
          "internalType": "address",
          "name": "newOwner",
          "type": "address"
        }
      ],
      "name": "transferOwnership",
      "outputs": [],
      "stateMutability": "nonpayable",
      "type": "function"
    }
  ],
  "bytecode": "0x60c06040908082523462000663576000916200186f803803809162000025828662000692565b8439820192606083850312620003a0576200004083620006b6565b6020848101519095906001600160401b0390818111620003d157860196601f9683888a0112156200065f5788518381116200064b5788998851956200008f85601f19809d860116018862000692565b828752848383010111620006475791620000b58992620000bc9486808a019101620006cb565b01620006b6565b918651948786018681108382111762000633578852600786526631b7bab73a32b960c91b838701527ff0c57e16840df040f15088dc2f81fe391c3923bec73e23a9662efc9c229c6a00998a549160ff838b1c1615848416938415806200062b575b6001809614908162000620575b15908162000616575b5062000605576001600160401b0319811685178e5581620005e7575b506200015a62000717565b6200016462000717565b3315620005cf57908a9b9c868b9c9a9b937f9016d09d72d40fdae2fd8ceac6b6234c7706214fd39c1cd1e609a0528c1993009b8c549c8d339060018060a01b031916179055519060018060a01b039c8d967f8be0079c531659141344cd1fd0a4f28419497f9722a3daafe3b4186f6b6457e0883393169180a362000590575b5050501660805285518381116200057c5789548381811c9116801562000571575b868210146200048a5782811162000529575b508085838211600114620004c9578b91620004bd575b50600019600383901b1c191690831b1789555b8751928311620004a95760039384548381811c911680156200049e575b828210146200048a5782811162000446575b50899a9b88999a9897985081928511600114620003e1575050829182918b93620003d5575b501b9160001990841b1c19161790555b3060a0521690813b15620003d157620002fa8592839288519485809481936309a7fd2760e11b835230600484015260606024840152620002e7606484018c620006f0565b83810360031901604485015290620006f0565b03925af18015620003c757620003b1575b5080608051169060a05116813b15620003ad579183916200034f938387518096819582946386eb164760e01b845260048401528a60248401526044830190620006f0565b03925af18015620003a35762000388575b825161111590816200075a82396080518161054c015260a05181818161020d01526105080152f35b62000394829162000668565b620003a0578062000360565b80fd5b83513d84823e3d90fd5b8380fd5b620003bf9093919362000668565b91386200030b565b85513d86823e3d90fd5b8480fd5b8a015192503862000293565b84939492919216858c52828c20928c905b8c8383106200042c57505050831162000413575b5050811b019055620002a3565b89015160001983861b60f8161c19169055388062000406565b84015185558b9950938601939283019290810190620003f2565b858b52818b208380870160051c82019284881062000480575b0160051c01905b8181106200047557506200026e565b8b8155840162000466565b925081926200045f565b634e487b7160e01b8b52602260045260248bfd5b90607f16906200025c565b634e487b7160e01b89526041600452602489fd5b9050870151386200022c565b8d859316908c8052878d20918d5b898c83831062000513575050508311620004f9575b5050811b0189556200023f565b89015160001960f88460031b161c191690553880620004ec565b84015185558896909401939283019201620004d7565b8a8052858b208380840160051c82019288851062000567575b0160051c019084905b8281106200055b57505062000216565b8c81550184906200054b565b9250819262000542565b90607f169062000204565b634e487b7160e01b8a52604160045260248afd5b7fc7f505b2f371ae2175ee4913f4499e1f2633a7b5936321eed1cdaeb6115181d29268ff0000000000000000198154169055868152a1388681620001e3565b8a51631e4fbdf760e01b8152600481018b9052602490fd5b6001600160481b03191668010000000000000001178d55386200014f565b8b5163f92ee8a960e01b8152600490fd5b9050153862000133565b303b1591506200012a565b50816200011d565b634e487b7160e01b88526041600452602488fd5b8780fd5b634e487b7160e01b87526041600452602487fd5b8580fd5b600080fd5b6001600160401b0381116200067c57604052565b634e487b7160e01b600052604160045260246000fd5b601f909101601f19168101906001600160401b038211908210176200067c57604052565b51906001600160a01b03821682036200066357565b60005b838110620006df5750506000910152565b8181015183820152602001620006ce565b906020916200070b81518092818552858086019101620006cb565b601f01601f1916010190565b60ff7ff0c57e16840df040f15088dc2f81fe391c3923bec73e23a9662efc9c229c6a005460401c16156200074757565b604051631afcd79f60e31b8152600490fdfe6040608081526004908136101561001557600080fd5b600091823560e01c9182630950c52414610acc5782632940325f14610a8b5782632d6d306214610a4957826330f3f0db146109f45782635a9b0b891461075f57826361bc221a14610740578263715018a6146106d65782637a5b4f59146105ef5782638ada066e146105b15782638da5cb5b1461057b578263a3d5dbe614610537578263c6f864e3146104f3578263c732f4b01461013d578263d826f88f146100f857505063f2fde38b146100c957600080fd5b346100f55760203660031901126100f5576100f26100e5610db1565b6100ed610dcc565b610e1a565b80f35b80fd5b8390346101395781600319360112610139576001546001600160a01b0316300361012a57602092508160055551908152f35b516308e3edd160e41b81529050fd5b5080fd5b839034610139578060031936011261013957610157610db1565b60249081359467ffffffffffffffff9283871161039057366023880112156103905786820135918483116104ef573682848a0101116104ef577ff0c57e16840df040f15088dc2f81fe391c3923bec73e23a9662efc9c229c6a009485549460ff86891c161594828716968715806104e8575b600180991490816104de575b1590816104d5575b506104c55767ffffffffffffffff19811688178955866104a6575b50610201610f38565b6001600160a01b0390307f00000000000000000000000000000000000000000000000000000000000000008316146104965761025f6bffffffffffffffffffffffff60a01b9330858b5416178a55610257610f38565b6100ed610f38565b61026a600254610e8e565b601f8111610430575b508a9b601f82116001146103a157868c9d83928e9a9b9c9d9e93610394575b505050600019600383901b1c191690891b176002555b7fac0974bec39a17e36ba4a6b4d238ff944bacb478cbed5efcae784d7bf4f2ff80541680918454161783556102db611026565b813b15610390578591610302918b5197888094819363ef1fe0af60e01b8352898301610b62565b03925af180156103865761035e575b5050505061031d578380f35b7fc7f505b2f371ae2175ee4913f4499e1f2633a7b5936321eed1cdaeb6115181d29260209268ff000000000000000019815416905551908152a18180808380f35b839894981161037557505084529385808080610311565b634e487b7160e01b84526041905282fd5b88513d8b823e3d90fd5b8580fd5b0101359050868e80610292565b60028c527f405787fa12a823e0f2b7631cc41b3ba8828b3321ca811111fa75cd3aa3bb5ace9c601f1983168d5b818110610415575091888e9f928c9d9e9f9b9c958095106103f9575b50505050811b016002556102a8565b60001960f88660031b161c19920101351690558d8088816103ea565b919e8f908a8d92860101358155019e602001916020016103ce565b60028c527f405787fa12a823e0f2b7631cc41b3ba8828b3321ca811111fa75cd3aa3bb5ace601f830160051c8101916020841061048c575b601f0160051c019089905b828110610481575050610273565b8d8155018990610473565b9091508190610468565b89516308e3edd160e41b81528590fd5b68ffffffffffffffffff1916680100000000000000011788558b6101f8565b895163f92ee8a960e01b81528590fd5b9050158d6101dd565b303b1591506101d5565b50866101c9565b8680fd5b839034610139578160031936011261013957517f00000000000000000000000000000000000000000000000000000000000000006001600160a01b03168152602090f35b839034610139578160031936011261013957517f00000000000000000000000000000000000000000000000000000000000000006001600160a01b03168152602090f35b8390346101395781600319360112610139576000805160206110c08339815191525490516001600160a01b039091168152602090f35b83346100f557806003193601126100f557506001546001600160a01b031630036105e2576020906005549051908152f35b516308e3edd160e41b8152fd5b83903461013957816003193601126101395780519082805461061081610e8e565b808552916001918083169081156106ae5750600114610652575b50505061063c8261064e940383610f16565b51918291602083526020830190610af5565b0390f35b80809650527f290decd9548b62a8d60345a988386fc84ba6bc95484008f6362f93160ef3e5635b8286106106965750505061063c82602061064e958201019461062a565b80546020878701810191909152909501948101610679565b61064e97508693506020925061063c94915060ff191682840152151560051b8201019461062a565b83346100f557806003193601126100f5576106ef610dcc565b6000805160206110c083398151915280546001600160a01b0319811690915581906001600160a01b03167f8be0079c531659141344cd1fd0a4f28419497f9722a3daafe3b4186f6b6457e08280a380f35b8390346101395781600319360112610139576020906005549051908152f35b839034610139578160031936011261013957805190827f9f2cbf14d45099f51bf985adb3c53b5e52f3a7db48a42b9fe7e952864c20df65838154926107a384610e8e565b9283835260019485811690816000146109d25750600114610975575b506107cc92500384610f16565b8151908482600254916107de83610e8e565b8083529284811690811561095657506001146108f8575b61080192500383610f16565b82519480916003549161081383610e8e565b808952928281169081156108cc5750600114610871575b6108568761064e888b6108648a610843838c0384610f16565b8351968796606088526060880190610af5565b908682036020880152610af5565b9184830390850152610af5565b9250600383527fc2575a0e9e593c00f959f8c92f12db2869c3395a3b0502d05e2516446f71f85b5b8284106108b45750505084016020016108648261084361082a565b80546020858a01810191909152909301928101610899565b60ff19166020808b019190915293151560051b890190930193506108649250849150610843905061082a565b5060028752908690837f405787fa12a823e0f2b7631cc41b3ba8828b3321ca811111fa75cd3aa3bb5ace5b82841061093c57505050906020610801928201016107f5565b602092945080548385890101520191019091838593610923565b6020925061080194915060ff191682840152151560051b8201016107f5565b875250908590837fdcc206f99ae966222e0d6832d40f57fbf12f52e8daee3044f47ed28e289f31d75b8284106109b8575050509060206107cc92820101876107bf565b6020929450805483858a010152019101909183869361099e565b9050602092506107cc94915060ff191682840152151560051b820101876107bf565b839034610139576020366003190112610139576001546001600160a01b0316300361012a576005549183358301809311610a3657602083838160055551908152f35b634e487b7160e01b815260118452602490fd5b839034610139576020366003190112610139576001546001600160a01b0316300361012a576005549183358303928311610a3657602083838160055551908152f35b83823461013957602036600319011261013957610aa6610db1565b610aae610dcc565b81546001600160a01b0319166001600160a01b039190911617905580f35b83903461013957816003193601126101395761064e90610aea611026565b905191829182610b62565b919082519283825260005b848110610b21575050826000602080949584010152601f8019910116010190565b602081830181015184830182015201610b00565b610b5f916020610b4e8351604084526040840190610af5565b920151906020818403910152610af5565b90565b90602080835260c083019082519160a082860152825180915260e08501908260e08260051b8801019401916000905b828210610d81575050505080830151601f199360409385878203018588015282518082528482019185808360051b8301019501926000915b838310610d3c57505050505083810151918587820301606088015282518082528482019185808360051b8301019501926000915b838310610d0a5750505050506060810151918587820301608088015282518082528482019185808360051b8301019501926000915b838310610cbd575050505050608001519460a085828403019101528451928382528282019083808660051b8501019701956000935b868510610c7957505050505050505090565b90919293949596978680828585600195030188528b51908280610ca384518b85528b850190610af5565b93015115159101529a019501950193969594929190610c67565b909192939587808a838d869d9e9c9d6001960301875282610ce88c5193845190808552840190610af5565b9281878060a01b03910151169101529801930193019193929098979698610c32565b90919293958780610d29838d869d9e9c9d600196030187528a51610b35565b9801930193019193929098979698610bfd565b909192939587808a838d869d9e9c9d600196030187528280610d688d5194855190808652850190610af5565b9301519101529801930193019193929098979698610bc9565b9091929593948580610d9f60019360df198c82030186528a51610b35565b98019201920190929195949395610b91565b600435906001600160a01b0382168203610dc757565b600080fd5b6000805160206110c0833981519152546001600160a01b0390811681610df0610f79565b1603610df95750565b602490610e04610f79565b60405163118cdaa760e01b815291166004820152fd5b6001600160a01b03908116908115610e75576000805160206110c083398151915280546001600160a01b031981168417909155167f8be0079c531659141344cd1fd0a4f28419497f9722a3daafe3b4186f6b6457e0600080a3565b604051631e4fbdf760e01b815260006004820152602490fd5b90600182811c92168015610ebe575b6020831014610ea857565b634e487b7160e01b600052602260045260246000fd5b91607f1691610e9d565b60a0810190811067ffffffffffffffff821117610ee457604052565b634e487b7160e01b600052604160045260246000fd5b6020810190811067ffffffffffffffff821117610ee457604052565b90601f8019910116810190811067ffffffffffffffff821117610ee457604052565b60ff7ff0c57e16840df040f15088dc2f81fe391c3923bec73e23a9662efc9c229c6a005460401c1615610f6757565b604051631afcd79f60e31b8152600490fd5b7fac0974bec39a17e36ba4a6b4d238ff944bacb478cbed5efcae784d7bf4f2ff80546001600160a01b039081163381036110205760206004916040519283809263348397e760e21b82525afa90811561101457600091610fda575b50905090565b6020813d821161100c575b81610ff260209383610f16565b81010312610139575191821682036100f557508038610fd4565b3d9150610fe5565b6040513d6000823e3d90fd5b50503390565b60406080815161103581610ec8565b606091818380935282602082015282858201528280820152015281519161105b83610efa565b6000835280519161106b83610efa565b60008352815161107a81610efa565b6000815282519261108a84610efa565b6000845280519461109a86610efa565b600086528151966110aa88610ec8565b8752602087015285015283015260808201529056fe9016d09d72d40fdae2fd8ceac6b6234c7706214fd39c1cd1e609a0528c199300a26469706673582212209226308741de2bff11521a3fa9fccb1ba119440f40dfd38a59ab0b2e344d6e6f64736f6c63430008140033",
  "linkReferences": {},
  "deployedLinkReferences": {}
}