{
  "_format": "hh-sol-artifact-1",
  "contractName": "ERC20Primitive",
  "sourceName": "contracts/primitives/ERC20Primitive.sol",
  "abi": [
    {
      "inputs": [
        {
          "internalType": "address",
          "name": "llmPrecompile",
          "type": "address"
        },
        {
          "internalType": "string",
          "name": "metadata",
          "type": "string"
        },
        {
          "internalType": "address",
          "name": "primitiveStorageAddress",
          "type": "address"
        }
      ],
      "stateMutability": "nonpayable",
      "type": "constructor"
    },
    {
      "inputs": [
        {
          "internalType": "address",
          "name": "spender",
          "type": "address"
        },
        {
          "internalType": "uint256",
          "name": "allowance",
          "type": "uint256"
        },
        {
          "internalType": "uint256",
          "name": "needed",
          "type": "uint256"
        }
      ],
      "name": "ERC20InsufficientAllowance",
      "type": "error"
    },
    {
      "inputs": [
        {
          "internalType": "address",
          "name": "sender",
          "type": "address"
        },
        {
          "internalType": "uint256",
          "name": "balance",
          "type": "uint256"
        },
        {
          "internalType": "uint256",
          "name": "needed",
          "type": "uint256"
        }
      ],
      "name": "ERC20InsufficientBalance",
      "type": "error"
    },
    {
      "inputs": [
        {
          "internalType": "address",
          "name": "approver",
          "type": "address"
        }
      ],
      "name": "ERC20InvalidApprover",
      "type": "error"
    },
    {
      "inputs": [
        {
          "internalType": "address",
          "name": "receiver",
          "type": "address"
        }
      ],
      "name": "ERC20InvalidReceiver",
      "type": "error"
    },
    {
      "inputs": [
        {
          "internalType": "address",
          "name": "sender",
          "type": "address"
        }
      ],
      "name": "ERC20InvalidSender",
      "type": "error"
    },
    {
      "inputs": [
        {
          "internalType": "address",
          "name": "spender",
          "type": "address"
        }
      ],
      "name": "ERC20InvalidSpender",
      "type": "error"
    },
    {
      "inputs": [],
      "name": "EmptyInputString",
      "type": "error"
    },
    {
      "inputs": [],
      "name": "EmptyInputString",
      "type": "error"
    },
    {
      "inputs": [],
      "name": "InvalidInitialization",
      "type": "error"
    },
    {
      "inputs": [
        {
          "internalType": "string",
          "name": "reason",
          "type": "string"
        }
      ],
      "name": "InvalidString",
      "type": "error"
    },
    {
      "inputs": [
        {
          "internalType": "string",
          "name": "reason",
          "type": "string"
        }
      ],
      "name": "InvalidString",
      "type": "error"
    },
    {
      "inputs": [],
      "name": "NotInitializing",
      "type": "error"
    },
    {
      "inputs": [],
      "name": "OnlyProxy",
      "type": "error"
    },
    {
      "inputs": [
        {
          "internalType": "address",
          "name": "owner",
          "type": "address"
        }
      ],
      "name": "OwnableInvalidOwner",
      "type": "error"
    },
    {
      "inputs": [
        {
          "internalType": "address",
          "name": "account",
          "type": "address"
        }
      ],
      "name": "OwnableUnauthorizedAccount",
      "type": "error"
    },
    {
      "inputs": [
        {
          "internalType": "uint256",
          "name": "timestamp",
          "type": "uint256"
        }
      ],
      "name": "RequestAfterSometime",
      "type": "error"
    },
    {
      "anonymous": false,
      "inputs": [
        {
          "indexed": true,
          "internalType": "address",
          "name": "owner",
          "type": "address"
        },
        {
          "indexed": true,
          "internalType": "address",
          "name": "spender",
          "type": "address"
        },
        {
          "indexed": false,
          "internalType": "uint256",
          "name": "value",
          "type": "uint256"
        }
      ],
      "name": "Approval",
      "type": "event"
    },
    {
      "anonymous": false,
      "inputs": [
        {
          "indexed": false,
          "internalType": "uint64",
          "name": "version",
          "type": "uint64"
        }
      ],
      "name": "Initialized",
      "type": "event"
    },
    {
      "anonymous": false,
      "inputs": [
        {
          "indexed": true,
          "internalType": "address",
          "name": "previousOwner",
          "type": "address"
        },
        {
          "indexed": true,
          "internalType": "address",
          "name": "newOwner",
          "type": "address"
        }
      ],
      "name": "OwnershipTransferred",
      "type": "event"
    },
    {
      "anonymous": false,
      "inputs": [
        {
          "indexed": true,
          "internalType": "address",
          "name": "from",
          "type": "address"
        },
        {
          "indexed": true,
          "internalType": "address",
          "name": "to",
          "type": "address"
        },
        {
          "indexed": false,
          "internalType": "uint256",
          "name": "value",
          "type": "uint256"
        }
      ],
      "name": "Transfer",
      "type": "event"
    },
    {
      "inputs": [],
      "name": "LLM_PRECOMPILE",
      "outputs": [
        {
          "internalType": "contract ILLM",
          "name": "",
          "type": "address"
        }
      ],
      "stateMutability": "view",
      "type": "function"
    },
    {
      "inputs": [],
      "name": "MINT_AMOUNT",
      "outputs": [
        {
          "internalType": "uint256",
          "name": "",
          "type": "uint256"
        }
      ],
      "stateMutability": "view",
      "type": "function"
    },
    {
      "inputs": [],
      "name": "MINT_TIME_LIMIT",
      "outputs": [
        {
          "internalType": "uint256",
          "name": "",
          "type": "uint256"
        }
      ],
      "stateMutability": "view",
      "type": "function"
    },
    {
      "inputs": [
        {
          "internalType": "address",
          "name": "owner",
          "type": "address"
        },
        {
          "internalType": "address",
          "name": "spender",
          "type": "address"
        }
      ],
      "name": "allowance",
      "outputs": [
        {
          "internalType": "uint256",
          "name": "",
          "type": "uint256"
        }
      ],
      "stateMutability": "view",
      "type": "function"
    },
    {
      "inputs": [
        {
          "internalType": "address",
          "name": "owner",
          "type": "address"
        },
        {
          "internalType": "address",
          "name": "spender",
          "type": "address"
        }
      ],
      "name": "allowanceFloat",
      "outputs": [
        {
          "internalType": "string",
          "name": "",
          "type": "string"
        }
      ],
      "stateMutability": "view",
      "type": "function"
    },
    {
      "inputs": [
        {
          "internalType": "address",
          "name": "spender",
          "type": "address"
        },
        {
          "internalType": "uint256",
          "name": "value",
          "type": "uint256"
        }
      ],
      "name": "approve",
      "outputs": [
        {
          "internalType": "bool",
          "name": "",
          "type": "bool"
        }
      ],
      "stateMutability": "nonpayable",
      "type": "function"
    },
    {
      "inputs": [
        {
          "internalType": "address",
          "name": "spender",
          "type": "address"
        },
        {
          "internalType": "string",
          "name": "amount",
          "type": "string"
        }
      ],
      "name": "approveFloat",
      "outputs": [
        {
          "internalType": "bool",
          "name": "",
          "type": "bool"
        }
      ],
      "stateMutability": "nonpayable",
      "type": "function"
    },
    {
      "inputs": [
        {
          "internalType": "address",
          "name": "account",
          "type": "address"
        }
      ],
      "name": "balanceOf",
      "outputs": [
        {
          "internalType": "uint256",
          "name": "",
          "type": "uint256"
        }
      ],
      "stateMutability": "view",
      "type": "function"
    },
    {
      "inputs": [
        {
          "internalType": "address",
          "name": "account",
          "type": "address"
        }
      ],
      "name": "balanceOfFloat",
      "outputs": [
        {
          "internalType": "string",
          "name": "",
          "type": "string"
        }
      ],
      "stateMutability": "view",
      "type": "function"
    },
    {
      "inputs": [
        {
          "internalType": "uint256",
          "name": "amount",
          "type": "uint256"
        }
      ],
      "name": "burn",
      "outputs": [],
      "stateMutability": "nonpayable",
      "type": "function"
    },
    {
      "inputs": [
        {
          "internalType": "string",
          "name": "amount",
          "type": "string"
        }
      ],
      "name": "burnFloat",
      "outputs": [],
      "stateMutability": "nonpayable",
      "type": "function"
    },
    {
      "inputs": [
        {
          "internalType": "string",
          "name": "amount",
          "type": "string"
        }
      ],
      "name": "configure",
      "outputs": [],
      "stateMutability": "nonpayable",
      "type": "function"
    },
    {
      "inputs": [
        {
          "internalType": "uint256",
          "name": "userInteger",
          "type": "uint256"
        }
      ],
      "name": "contractFormatToUserFormat",
      "outputs": [
        {
          "internalType": "string",
          "name": "",
          "type": "string"
        }
      ],
      "stateMutability": "view",
      "type": "function"
    },
    {
      "inputs": [],
      "name": "decimals",
      "outputs": [
        {
          "internalType": "uint8",
          "name": "",
          "type": "uint8"
        }
      ],
      "stateMutability": "view",
      "type": "function"
    },
    {
      "inputs": [],
      "name": "getInfo",
      "outputs": [
        {
          "internalType": "string",
          "name": "contractName",
          "type": "string"
        },
        {
          "internalType": "string",
          "name": "customRules",
          "type": "string"
        },
        {
          "internalType": "string",
          "name": "primitiveName",
          "type": "string"
        }
      ],
      "stateMutability": "view",
      "type": "function"
    },
    {
      "inputs": [],
      "name": "getMetadata",
      "outputs": [
        {
          "internalType": "string",
          "name": "",
          "type": "string"
        }
      ],
      "stateMutability": "view",
      "type": "function"
    },
    {
      "inputs": [],
      "name": "getPrimitiveAddress",
      "outputs": [
        {
          "internalType": "address",
          "name": "",
          "type": "address"
        }
      ],
      "stateMutability": "view",
      "type": "function"
    },
    {
      "inputs": [],
      "name": "getRobotState",
      "outputs": [
        {
          "components": [
            {
              "components": [
                {
                  "internalType": "string",
                  "name": "name",
                  "type": "string"
                },
                {
                  "internalType": "string",
                  "name": "value",
                  "type": "string"
                }
              ],
              "internalType": "struct IRobotStateEmitter.NamedFloat[]",
              "name": "floats",
              "type": "tuple[]"
            },
            {
              "components": [
                {
                  "internalType": "string",
                  "name": "name",
                  "type": "string"
                },
                {
                  "internalType": "uint256",
                  "name": "value",
                  "type": "uint256"
                }
              ],
              "internalType": "struct IRobotStateEmitter.NamedUint[]",
              "name": "uints",
              "type": "tuple[]"
            },
            {
              "components": [
                {
                  "internalType": "string",
                  "name": "name",
                  "type": "string"
                },
                {
                  "internalType": "string",
                  "name": "value",
                  "type": "string"
                }
              ],
              "internalType": "struct IRobotStateEmitter.NamedString[]",
              "name": "strings",
              "type": "tuple[]"
            },
            {
              "components": [
                {
                  "internalType": "string",
                  "name": "name",
                  "type": "string"
                },
                {
                  "internalType": "address",
                  "name": "value",
                  "type": "address"
                }
              ],
              "internalType": "struct IRobotStateEmitter.NamedAddress[]",
              "name": "addresses",
              "type": "tuple[]"
            },
            {
              "components": [
                {
                  "internalType": "string",
                  "name": "name",
                  "type": "string"
                },
                {
                  "internalType": "bool",
                  "name": "value",
                  "type": "bool"
                }
              ],
              "internalType": "struct IRobotStateEmitter.NamedBool[]",
              "name": "bools",
              "type": "tuple[]"
            }
          ],
          "internalType": "struct IRobotStateEmitter.StateChangePayload",
          "name": "",
          "type": "tuple"
        }
      ],
      "stateMutability": "view",
      "type": "function"
    },
    {
      "inputs": [
        {
          "internalType": "uint256",
          "name": "amount",
          "type": "uint256"
        }
      ],
      "name": "mint",
      "outputs": [],
      "stateMutability": "nonpayable",
      "type": "function"
    },
    {
      "inputs": [
        {
          "internalType": "string",
          "name": "amount",
          "type": "string"
        }
      ],
      "name": "mintFloat",
      "outputs": [],
      "stateMutability": "nonpayable",
      "type": "function"
    },
    {
      "inputs": [],
      "name": "name",
      "outputs": [
        {
          "internalType": "string",
          "name": "",
          "type": "string"
        }
      ],
      "stateMutability": "view",
      "type": "function"
    },
    {
      "inputs": [],
      "name": "owner",
      "outputs": [
        {
          "internalType": "address",
          "name": "",
          "type": "address"
        }
      ],
      "stateMutability": "view",
      "type": "function"
    },
    {
      "inputs": [],
      "name": "renounceOwnership",
      "outputs": [],
      "stateMutability": "nonpayable",
      "type": "function"
    },
    {
      "inputs": [
        {
          "internalType": "address",
          "name": "owner_",
          "type": "address"
        },
        {
          "internalType": "string",
          "name": "customRules",
          "type": "string"
        }
      ],
      "name": "robotContractInit",
      "outputs": [],
      "stateMutability": "nonpayable",
      "type": "function"
    },
    {
      "inputs": [
        {
          "internalType": "address",
          "name": "emitter",
          "type": "address"
        }
      ],
      "name": "setRobotStateEmitter",
      "outputs": [],
      "stateMutability": "nonpayable",
      "type": "function"
    },
    {
      "inputs": [],
      "name": "symbol",
      "outputs": [
        {
          "internalType": "string",
          "name": "",
          "type": "string"
        }
      ],
      "stateMutability": "view",
      "type": "function"
    },
    {
      "inputs": [],
      "name": "totalSupply",
      "outputs": [
        {
          "internalType": "uint256",
          "name": "",
          "type": "uint256"
        }
      ],
      "stateMutability": "view",
      "type": "function"
    },
    {
      "inputs": [],
      "name": "totalSupplyFloat",
      "outputs": [
        {
          "internalType": "string",
          "name": "",
          "type": "string"
        }
      ],
      "stateMutability": "view",
      "type": "function"
    },
    {
      "inputs": [
        {
          "internalType": "address",
          "name": "to",
          "type": "address"
        },
        {
          "internalType": "uint256",
          "name": "amount",
          "type": "uint256"
        }
      ],
      "name": "transfer",
      "outputs": [
        {
          "internalType": "bool",
          "name": "",
          "type": "bool"
        }
      ],
      "stateMutability": "nonpayable",
      "type": "function"
    },
    {
      "inputs": [
        {
          "internalType": "address",
          "name": "to",
          "type": "address"
        },
        {
          "internalType": "string",
          "name": "amount",
          "type": "string"
        }
      ],
      "name": "transferFloat",
      "outputs": [],
      "stateMutability": "nonpayable",
      "type": "function"
    },
    {
      "inputs": [
        {
          "internalType": "address",
          "name": "from",
          "type": "address"
        },
        {
          "internalType": "address",
          "name": "to",
          "type": "address"
        },
        {
          "internalType": "uint256",
          "name": "value",
          "type": "uint256"
        }
      ],
      "name": "transferFrom",
      "outputs": [
        {
          "internalType": "bool",
          "name": "",
          "type": "bool"
        }
      ],
      "stateMutability": "nonpayable",
      "type": "function"
    },
    {
      "inputs": [
        {
          "internalType": "address",
          "name": "sender",
          "type": "address"
        },
        {
          "internalType": "address",
          "name": "recipient",
          "type": "address"
        },
        {
          "internalType": "string",
          "name": "amount",
          "type": "string"
        }
      ],
      "name": "transferFromFloat",
      "outputs": [
        {
          "internalType": "bool",
          "name": "",
          "type": "bool"
        }
      ],
      "stateMutability": "nonpayable",
      "type": "function"
    },
    {
      "inputs": [
        {
          "internalType": "address",
          "name": "newOwner",
          "type": "address"
        }
      ],
      "name": "transferOwnership",
      "outputs": [],
      "stateMutability": "nonpayable",
      "type": "function"
    },
    {
      "inputs": [
        {
          "internalType": "string",
          "name": "userFixedPointString",
          "type": "string"
        }
      ],
      "name": "userFormatToContractFormat",
      "outputs": [
        {
          "internalType": "uint256",
          "name": "",
          "type": "uint256"
        }
      ],
      "stateMutability": "view",
      "type": "function"
    }
  ],
  "bytecode": "0x60c060409080825234620006615760009162003b55803803809162000025828662000690565b84398201926060838503126200039e576200004083620006b4565b6020848101519095906001600160401b0390818111620003cf57860196601f9683888a0112156200065d578851838111620006495788998851956200008f85601f19809d860116018862000690565b828752848383010111620006455791620000b58992620000bc9486808a019101620006c9565b01620006b4565b9186519487860186811083821117620006315788526005865264065726332360dc1b838701527ff0c57e16840df040f15088dc2f81fe391c3923bec73e23a9662efc9c229c6a00998a549160ff838b1c16158484169384158062000629575b600180961490816200061e575b15908162000614575b5062000603576001600160401b0319811685178e5581620005e5575b506200015862000715565b6200016262000715565b3315620005cd57908a9b9c868b9c9a9b937f9016d09d72d40fdae2fd8ceac6b6234c7706214fd39c1cd1e609a0528c1993009b8c549c8d339060018060a01b031916179055519060018060a01b039c8d967f8be0079c531659141344cd1fd0a4f28419497f9722a3daafe3b4186f6b6457e0883393169180a36200058e575b5050501660805285518381116200057a5789548381811c911680156200056f575b86821014620004885782811162000527575b508085838211600114620004c7578b91620004bb575b50600019600383901b1c191690831b1789555b8751928311620004a75760039384548381811c911680156200049c575b82821014620004885782811162000444575b50899a9b88999a9897985081928511600114620003df575050829182918b93620003d3575b501b9160001990841b1c19161790555b3060a0521690813b15620003cf57620002f88592839288519485809481936309a7fd2760e11b835230600484015260606024840152620002e5606484018c620006ee565b83810360031901604485015290620006ee565b03925af18015620003c557620003af575b5080608051169060a05116813b15620003ab579183916200034d938387518096819582946386eb164760e01b845260048401528a60248401526044830190620006ee565b03925af18015620003a15762000386575b82516133fd908162000758823960805181610af5015260a05181818161039b01526109fa0152f35b62000392829162000666565b6200039e57806200035e565b80fd5b83513d84823e3d90fd5b8380fd5b620003bd9093919362000666565b913862000309565b85513d86823e3d90fd5b8480fd5b8a015192503862000291565b84939492919216858c52828c20928c905b8c8383106200042a57505050831162000411575b5050811b019055620002a1565b89015160001983861b60f8161c19169055388062000404565b84015185558b9950938601939283019290810190620003f0565b858b52818b208380870160051c8201928488106200047e575b0160051c01905b8181106200047357506200026c565b8b8155840162000464565b925081926200045d565b634e487b7160e01b8b52602260045260248bfd5b90607f16906200025a565b634e487b7160e01b89526041600452602489fd5b9050870151386200022a565b8d859316908c8052878d20918d5b898c83831062000511575050508311620004f7575b5050811b0189556200023d565b89015160001960f88460031b161c191690553880620004ea565b84015185558896909401939283019201620004d5565b8a8052858b208380840160051c82019288851062000565575b0160051c019084905b8281106200055957505062000214565b8c815501849062000549565b9250819262000540565b90607f169062000202565b634e487b7160e01b8a52604160045260248afd5b7fc7f505b2f371ae2175ee4913f4499e1f2633a7b5936321eed1cdaeb6115181d29268ff0000000000000000198154169055868152a1388681620001e1565b8a51631e4fbdf760e01b8152600481018b9052602490fd5b6001600160481b03191668010000000000000001178d55386200014d565b8b5163f92ee8a960e01b8152600490fd5b9050153862000131565b303b15915062000128565b50816200011b565b634e487b7160e01b88526041600452602488fd5b8780fd5b634e487b7160e01b87526041600452602487fd5b8580fd5b600080fd5b6001600160401b0381116200067a57604052565b634e487b7160e01b600052604160045260246000fd5b601f909101601f19168101906001600160401b038211908210176200067a57604052565b51906001600160a01b03821682036200066157565b60005b838110620006dd5750506000910152565b8181015183820152602001620006cc565b906020916200070981518092818552858086019101620006c9565b601f01601f1916010190565b60ff7ff0c57e16840df040f15088dc2f81fe391c3923bec73e23a9662efc9c229c6a005460401c16156200074557565b604051631afcd79f60e31b8152600490fdfe608060408181526004918236101561001657600080fd5b600090813560e01c90816306fdde0314611b57575080630950c52414611b2e578063095ea7b314611b025780631720b1c514611ab457806318160ddd14611a8857806323b872dd14611a565780632940325f14611a155780632c158f9e14611792578063313ce5671461177657806342966c681461167b57806342df12de146116155780635427789c146115f15780635a9b0b891461142557806369be97e11461123157806370a08231146111ec578063715018a6146111815780637a5b4f59146110b157806385057a0914610f985780638da5cb5b14610f625780638dd0da0814610ef15780639073248e14610ed157806395d89b4114610dca5780639698861514610dad578063a0712d6814610b24578063a3d5dbe614610ae0578063a9059cbb14610ab7578063bd3b16d714610a72578063be6d2c4f14610a29578063c6f864e3146109e5578063c732f4b014610301578063dd62ed3e146102b9578063f2fde38b1461028c578063facf1928146102435763ffa76b8a1461019a57600080fd5b34610240576060366003190112610240576101b3611f0d565b926101bc611f28565b91604435906001600160401b03821161024057506101dd9036908301612046565b600154919290916001600160a01b031630036102325781156102245750916102156102106020969361021b95369161200f565b612e6f565b916122cb565b90519015158152f35b8451630626ad3360e01b8152fd5b84516308e3edd160e41b8152fd5b80fd5b5090346102885781600319360112610288576102849061027160008051602061338883398151915254612c30565b9051918291602083526020830190611c6c565b0390f35b5080fd5b5034610240576020366003190112610240576102b66102a9611f0d565b6102b16120b6565b612104565b80f35b5090346102885780600319360112610288576020906102d6611f0d565b6102e76102e1611f28565b91612292565b9060018060a01b0316600052825280600020549051908152f35b5091346108635761031136612073565b927ff0c57e16840df040f15088dc2f81fe391c3923bec73e23a9662efc9c229c6a009291929384549360ff85881c1615936001600160401b0392838716968715806109de575b600180991490816109d4575b1590816109cb575b506109bb5767ffffffffffffffff198116881789558661099c575b5061038f6126a8565b6001600160a01b0390307f000000000000000000000000000000000000000000000000000000000000000083161461098c576103ed6bffffffffffffffffffffffff60a01b9330858b5416178a556103e56126a8565b6102b16126a8565b84811161097957908a9291610403600254612178565b94601f95868111610902575b5084908683116001146108725785919083610867575b5050600019600383901b1c191690891b176002555b7fac0974bec39a17e36ba4a6b4d238ff944bacb478cbed5efcae784d7bf4f2ff8054168086549283161786558261046f61309a565b921617803b1561086357895163ef1fe0af60e01b8152918391839182908490829061049c908c8301611cbe565b03925af1801561085957610841575b50506104b56121b2565b926104fa602f895180966e524f424f545f4445504c4f5945445f60881b60208301526104ea8151809260208686019101611c49565b810103600f810187520185611fd3565b6105026121b2565b9361050b6126a8565b6105136126a8565b805184811161082e57807f52c63247e1f47db19d5ce0460030c497f067ca4cebf71ba98eeadabe20bace03926105498454612178565b8681116107bf575b506020908d8784116001146107425792610737575b5050600019600383901b1c191690881b1790555b8351928311610724575081907f52c63247e1f47db19d5ce0460030c497f067ca4cebf71ba98eeadabe20bace04936105b28554612178565b8281116106b3575b50602091831160011461063657899261062b575b5050600019600383901b1c191690841b1790555b6105ea578380f35b7fc7f505b2f371ae2175ee4913f4499e1f2633a7b5936321eed1cdaeb6115181d29260209268ff000000000000000019815416905551908152a13880808380f35b0151905038806105ce565b848a528693507f46a2803e59a4de4e7a4c574b1243f25977ac4c77d5a1a4a609b5394cebb4a2aa9190601f1984168b5b81811061069b57508411610682575b505050811b0190556105e2565b015160001960f88460031b161c19169055388080610675565b82840151855589969094019360209384019301610666565b90919250846000527f46a2803e59a4de4e7a4c574b1243f25977ac4c77d5a1a4a609b5394cebb4a2aa8380860160051c8201926020871061071b575b9186958a929594930160051c01915b82811061070c5750506105ba565b600081558695508991016106fe565b925081926106ef565b634e487b7160e01b895260419052602488fd5b015190503880610566565b91908b9450601f1984168684527f2ae08a8e29253f69ac5d979a101956ab8f8d9d7ded63fa7a83b16fc47648eab0935b8181106107a75750841161078e575b505050811b01905561057a565b015160001960f88460031b161c19169055388080610781565b8284015185558d969094019360209384019301610772565b909150836000527f2ae08a8e29253f69ac5d979a101956ab8f8d9d7ded63fa7a83b16fc47648eab08680850160051c82019260208610610825575b918c91869594930160051c01915b828110610816575050610551565b600081558594508c9101610808565b925081926107fa565b634e487b7160e01b8b526041835260248bfd5b61084a90611f8a565b6108555787386104ab565b8780fd5b89513d84823e3d90fd5b8280fd5b013590503880610425565b600286528a92917f405787fa12a823e0f2b7631cc41b3ba8828b3321ca811111fa75cd3aa3bb5ace9190601f198416885b8181106108da575084116108c0575b505050811b0160025561043a565b0135600019600384901b60f8161c191690553880806108b2565b93839597989950958296602093849395013581550195019201918f97969593918d95936108a3565b90919293945060026000527f405787fa12a823e0f2b7631cc41b3ba8828b3321ca811111fa75cd3aa3bb5ace8680850160051c82019260208610610970575b918f979695949392918d920160051c01915b82811061096157505061040f565b600081558f97508c9101610953565b92508192610941565b634e487b7160e01b8b526041865260248bfd5b89516308e3edd160e41b81528690fd5b68ffffffffffffffffff19166801000000000000000117885538610386565b895163f92ee8a960e01b81528690fd5b9050153861036b565b303b159150610363565b5086610357565b509034610288578160031936011261028857517f00000000000000000000000000000000000000000000000000000000000000006001600160a01b03168152602090f35b50903461028857602036600319011261028857610284916102719082906001600160a01b03610a56611f0d565b1681526000805160206133488339815191526020522054612c30565b50903461028857806003193601126102885761028490610a90611f0d565b610a9b6102e1611f28565b9060018060a01b03166000526020526102718160002054612c30565b50903461028857806003193601126102885760209061021b610ad7611f0d565b602435906128fc565b509034610288578160031936011261028857517f00000000000000000000000000000000000000000000000000000000000000006001600160a01b03168152602090f35b509034610288576020908160031936011261086357600154843594906001600160a01b039081163003610d9e5785610b5a61329a565b9682600080516020613368833981519152541690838916918203610d21575b5015610d0a57610b9687610b91610c6f93899a6124bc565b612b67565b948451610ba281611f9d565b60008152855196610bb288611f9d565b600088528651610bc181611f9d565b600081528751610bd081611f9d565b60008152885191610be083611f9d565b6000835289519a610bf08c611f3e565b8b52858b01948552898b015260608a015260808901528015610cff57610c1a60ff60015b16612756565b8252610ccb575b50610c2a6127bf565b8652610c4460008051602061338883398151915254612c30565b855191610c5083611f6f565b610c586128ad565b8352820152855190610c698261286a565b5261286a565b5081541692833b15610cc757610c9b93859283855180978195829463ef1fe0af60e01b84528301611cbe565b03925af1908115610cbe5750610cae5750f35b610cb790611f8a565b6102405780f35b513d84823e3d90fd5b8480fd5b610cf89060075490875191610cdf83611f6f565b610ce7612830565b8352848301525190610c698261286a565b5038610c21565b610c1a60ff8a610c14565b835163ec442f0560e01b8152808401879052602490fd5b9080925087526005865284872054610e1090818101809111610d8b574210610d75575081875260058652428588205568056bc75e2d6310000090818111600014610d6e57505b9038610b79565b9050610d67565b84602491875191632dfe10ed60e01b8352820152fd5b634e487b7160e01b895260118652602489fd5b5090516308e3edd160e41b8152fd5b50903461028857816003193601126102885760209051610e108152f35b50346102405780600319360112610240575080516000917f52c63247e1f47db19d5ce0460030c497f067ca4cebf71ba98eeadabe20bace048054610e0d81612178565b80855291600191808316908115610ea95750600114610e4b575b505050610e3982610284940383611fd3565b51918291602083526020830190611c6c565b600090815294507f46a2803e59a4de4e7a4c574b1243f25977ac4c77d5a1a4a609b5394cebb4a2aa5b828610610e9157505050610e398260206102849582010194610e27565b80546020878701810191909152909501948101610e74565b610284975086935060209250610e3994915060ff191682840152151560051b82010194610e27565b503461024057602036600319011261024057506102716102849235612c30565b50346102405750610f0136612073565b90919360018060a01b03600154163003610f54578115610f46575092610f31610210610f3f93602096369161200f565b90610f3a61329a565b612618565b5160018152f35b8351630626ad3360e01b8152fd5b83516308e3edd160e41b8152fd5b5090346102885781600319360112610288576000805160206133688339815191525490516001600160a01b039091168152602090f35b50903461028857602090816003193601126108635783356001600160401b0381116110ad57610fca9036908601612046565b9490610fd46120b6565b6001546001600160a01b0396908716300361109d57801561108d57610ffe9161021091369161200f565b9461100761329a565b9581600080516020613368833981519152541682881690810361103c575b15610d0a57610b9687610b91610c6f93899a6124bc565b908187526005865284872054610e1090818101809111610d8b574210610d75575081875260058652428588205568056bc75e2d631000009081811160001461108657505b90611025565b9050611080565b8351630626ad3360e01b81528390fd5b83516308e3edd160e41b81528390fd5b8380fd5b503461024057806003193601126102405750805160009182546110d381612178565b8084529060019081811690811561115957506001146110fe575b5050610e3982610284940383611fd3565b600080805294507f290decd9548b62a8d60345a988386fc84ba6bc95484008f6362f93160ef3e5635b8286106111415750505091810160200191610e39826110ed565b80546020878701810191909152909501948101611127565b61028496508592506020915092610e399360ff191682840152151560051b82010194506110ed565b503461024057806003193601126102405761119a6120b6565b60008051602061336883398151915280546001600160a01b031981169091556000906001600160a01b03167f8be0079c531659141344cd1fd0a4f28419497f9722a3daafe3b4186f6b6457e08280a380f35b5090346102885760203660031901126102885760209181906001600160a01b03611214611f0d565b168152600080516020613348833981519152845220549051908152f35b5090346102885760203660031901126102885782356001600160401b038111610863576112619036908501612046565b6001546001600160a01b0393929190841630036114155780156114055761128d9161021091369161200f565b9361129661329a565b94838616156113ef57856112ba826112b26112c294899a612534565b600854612499565b600855612b67565b9282516112ce81611f9d565b600081526112da6127f6565b9484516112e681611f9d565b6000815285516112f581611f9d565b6000815286519161130583611f9d565b600083528751986113158a611f3e565b89526020890194855287890152606088015260808701526113b0575b5061137461134d60008051602061338883398151915254612c30565b84519061135982611f6f565b6113616128ad565b82526020820152855190610c698261286a565b50610c6f611383600854612c30565b84519061138f82611f6f565b6113976128d4565b825260208201528551906113aa8261288d565b5261288d565b6113e8906113bc61271a565b8152600754908551916113ce83611f6f565b6113d6612830565b835260208301525190610c698261286a565b5038611331565b50836024925191634b637e8f60e11b8352820152fd5b8251630626ad3360e01b81528690fd5b82516308e3edd160e41b81528690fd5b50346102405780600319360112610240575061143f6121b2565b8151600254929060008161145286612178565b9182825260019687811690816000146115d25750600114611571575b61147a92500382611fd3565b8151936000906003549061148d82612178565b8088529181811690811561154857506001146114eb575b6114d086610284878a6114de896114bd838b0384611fd3565b8351968796606088526060880190611c6c565b908682036020880152611c6c565b9184830390850152611c6c565b6003600090815292507fc2575a0e9e593c00f959f8c92f12db2869c3395a3b0502d05e2516446f71f85b5b8284106115305750505084016020016114de6102846114a4565b80546020858a01810191909152909301928101611516565b60ff19166020808a019190915292151560051b880190920192506114de915061028490506114a4565b509060026000527f405787fa12a823e0f2b7631cc41b3ba8828b3321ca811111fa75cd3aa3bb5ace90866000925b8284106115b85750505090602061147a9282010161146e565b60209294508054838588010152019101909186849361159f565b6020925061147a94915060ff191682840152151560051b82010161146e565b5090346102885781600319360112610288576020905168056bc75e2d631000008152f35b509190346108635761162636612073565b6001549294919390926001600160a01b0316300361166e578215611661578561165d8661165761021036888a61200f565b906128fc565b5080f35b51630626ad3360e01b8152fd5b516308e3edd160e41b8152fd5b508234610288576020366003190112610288576001548135936001600160a01b0392909183163003611768576116af61329a565b94838616156113ef57856112ba826112b26116cb94899a612534565b9282516116d781611f9d565b600081526116e36127f6565b9484516116ef81611f9d565b6000815285516116fe81611f9d565b6000815286519161170e83611f9d565b6000835287519861171e8a611f3e565b8952602089019485528789015260608801526080870152611755575061137461134d60008051602061338883398151915254612c30565b611761906113bc61271a565b5086611331565b90516308e3edd160e41b8152fd5b5090346102885781600319360112610288576020905160128152f35b50919034610863576020806003193601126110ad5782356001600160401b038111610cc7576117c49036908501612046565b6001546001600160a01b0392919083163003611a055780156119f5576117ef9161021091369161200f565b6117f761329a565b9082600080516020613368833981519152541683831690810361197b575b156119645761182e82610b916118f8938a9796956124bc565b92855161183a81611f9d565b85815286519461184986611f9d565b868652875161185781611f9d565b878152885161186581611f9d565b88815289519161187483611f9d565b8983528a51986118838a611f3e565b89528589019485528a890152606088015260808701528015611959576118a96001612756565b825261193e575b506118b96127bf565b84526118d360008051602061338883398151915254612c30565b8651916118df83611f6f565b6118e76128ad565b8352820152835190610c698261286a565b50845416803b15610863576119219483855180978195829463ef1fe0af60e01b84528301611cbe565b03925af1908115610cbe5750611935575080f35b6102b690611f8a565b6119529060075490885191610cdf83611f6f565b50386118b0565b6118a960ff88610c14565b845163ec442f0560e01b8152808701889052602490fd5b908188526005855285882054610e10908181018091116119e25742106119cc575081885260058552428689205568056bc75e2d63100000908181116000146119c557505b90611815565b90506119bf565b87602491885191632dfe10ed60e01b8352820152fd5b634e487b7160e01b8a526011895260248afd5b8451630626ad3360e01b81528690fd5b84516308e3edd160e41b81528690fd5b50823461028857602036600319011261028857611a30611f0d565b611a386120b6565b81546001600160a01b0319166001600160a01b039190911617905580f35b5090346102885760603660031901126102885760209061021b611a77611f0d565b611a7f611f28565b604435916122cb565b509034610288578160031936011261028857602090600080516020613388833981519152549051908152f35b5034610240576020366003190112610240578235906001600160401b03821161024057366023830112156102405750610210602093826024611afb9436930135910161200f565b9051908152f35b509034610288578060031936011261028857602090610f3f611b22611f0d565b60243590610f3a61329a565b50903461028857816003193601126102885761028490611b4c61309a565b905191829182611cbe565b905082346108635782600319360112610863577f52c63247e1f47db19d5ce0460030c497f067ca4cebf71ba98eeadabe20bace03805484611b9782612178565b80865292600192808416908115611c1e5750600114611bc2575b6102848686610e39828b0383611fd3565b815294507f2ae08a8e29253f69ac5d979a101956ab8f8d9d7ded63fa7a83b16fc47648eab05b828610611c0657505050610e39826020610284958201019486611bb1565b80546020878701810191909152909501948101611be8565b9050610284975086935060209250610e3994915060ff191682840152151560051b8201019486611bb1565b60005b838110611c5c5750506000910152565b8181015183820152602001611c4c565b90602091611c8581518092818552858086019101611c49565b601f01601f1916010190565b611cbb916020611caa8351604084526040840190611c6c565b920151906020818403910152611c6c565b90565b90602080835260c083019082519160a082860152825180915260e08501908260e08260051b8801019401916000905b828210611edd575050505080830151601f199360409385878203018588015282518082528482019185808360051b8301019501926000915b838310611e9857505050505083810151918587820301606088015282518082528482019185808360051b8301019501926000915b838310611e665750505050506060810151918587820301608088015282518082528482019185808360051b8301019501926000915b838310611e19575050505050608001519460a085828403019101528451928382528282019083808660051b8501019701956000935b868510611dd557505050505050505090565b90919293949596978680828585600195030188528b51908280611dff84518b85528b850190611c6c565b93015115159101529a019501950193969594929190611dc3565b909192939587808a838d869d9e9c9d6001960301875282611e448c5193845190808552840190611c6c565b9281878060a01b03910151169101529801930193019193929098979698611d8e565b90919293958780611e85838d869d9e9c9d600196030187528a51611c91565b9801930193019193929098979698611d59565b909192939587808a838d869d9e9c9d600196030187528280611ec48d5194855190808652850190611c6c565b9301519101529801930193019193929098979698611d25565b9091929593948580611efb60019360df198c82030186528a51611c91565b98019201920190929195949395611ced565b600435906001600160a01b0382168203611f2357565b600080fd5b602435906001600160a01b0382168203611f2357565b60a081019081106001600160401b03821117611f5957604052565b634e487b7160e01b600052604160045260246000fd5b604081019081106001600160401b03821117611f5957604052565b6001600160401b038111611f5957604052565b602081019081106001600160401b03821117611f5957604052565b606081019081106001600160401b03821117611f5957604052565b90601f801991011681019081106001600160401b03821117611f5957604052565b6001600160401b038111611f5957601f01601f191660200190565b92919261201b82611ff4565b916120296040519384611fd3565b829481845281830111611f23578281602093846000960137010152565b9181601f84011215611f23578235916001600160401b038311611f235760208381860195010111611f2357565b906040600319830112611f23576004356001600160a01b0381168103611f235791602435906001600160401b038211611f23576120b291600401612046565b9091565b600080516020613368833981519152546001600160a01b03908116816120da61329a565b16036120e35750565b6024906120ee61329a565b60405163118cdaa760e01b815291166004820152fd5b6001600160a01b0390811690811561215f5760008051602061336883398151915280546001600160a01b031981168417909155167f8be0079c531659141344cd1fd0a4f28419497f9722a3daafe3b4186f6b6457e0600080a3565b604051631e4fbdf760e01b815260006004820152602490fd5b90600182811c921680156121a8575b602083101461219257565b634e487b7160e01b600052602260045260246000fd5b91607f1691612187565b604051906000827f9f2cbf14d45099f51bf985adb3c53b5e52f3a7db48a42b9fe7e952864c20df659182546121e681612178565b8084529360019180831690811561226e5750600114612210575b505061220e92500383611fd3565b565b600090815291507fdcc206f99ae966222e0d6832d40f57fbf12f52e8daee3044f47ed28e289f31d75b848310612253575061220e93505081016020013880612200565b81935090816020925483858a01015201910190918592612239565b9150506020925061220e94915060ff191682840152151560051b8201013880612200565b6001600160a01b031660009081527f52c63247e1f47db19d5ce0460030c497f067ca4cebf71ba98eeadabe20bace016020526040902090565b9291906122d661329a565b936122e081612292565b6001600160a01b03808716600081815260209390935260408320549297909190600019841061231e575b505050506123199394506123bd565b600190565b86841061238c575083161561237357801561235a578461231996979260409261234686612292565b90855260205203912055849338808061230a565b604051634a1406b160e11b815260048101889052602490fd5b60405163e602df0560e01b815260048101889052602490fd5b604051637dc7a0d960e11b81526001600160a01b039190911660048201526024810184905260448101879052606490fd5b916001600160a01b0380841692831561248057169283156124675760009083825260008051602061334883398151915280602052604083205491848310612434575082846000805160206133a8833981519152959360409388602097528652038282205586815220818154019055604051908152a3565b60405163391434e360e21b81526001600160a01b0391909116600482015260248101929092525060448101839052606490fd5b60405163ec442f0560e01b815260006004820152602490fd5b604051634b637e8f60e11b815260006004820152602490fd5b919082018092116124a657565b634e487b7160e01b600052601160045260246000fd5b906000805160206133a88339815191526020600092600080516020613388833981519152946124ec828754612499565b86556001600160a01b03169485158514612510578181540390555b604051908152a3565b50848452600080516020613348833981519152825260408420818154019055612507565b9091906001600160a01b038116908161259857506000805160206133a8833981519152602060009394600080516020613388833981519152612577828254612499565b90555b600080516020613388833981519152818154039055604051908152a3565b928160005260008051602061334883398151915280602052604060002054948286106125e75750816000805160206133a88339815191529260009596602093868852845203604086205561257a565b60405163391434e360e21b81526001600160a01b039190911660048201526024810186905260448101839052606490fd5b916001600160a01b0380841692831561268f5716928315612676577f8c5be1e5ebec7d5bd14f71427d1e84f3dd0314c0f7b2291e5b200ac8c7c3b92591612660602092612292565b85600052825280604060002055604051908152a3565b604051634a1406b160e11b815260006004820152602490fd5b60405163e602df0560e01b815260006004820152602490fd5b60ff7ff0c57e16840df040f15088dc2f81fe391c3923bec73e23a9662efc9c229c6a005460401c16156126d757565b604051631afcd79f60e31b8152600490fd5b6001600160401b038111611f595760051b60200190565b6040519061270d82611f6f565b6000602083606081520152565b6040519061272782611f6f565b600182528160005b6020908181101561275157602091612745612700565b9082850101520161272f565b505050565b90612760826126e9565b61276d6040519182611fd3565b828152809261277e601f19916126e9565b019060005b82811061278f57505050565b60209061279a612700565b82828501015201612783565b604051906127b382611f6f565b60606020838281520152565b604051906127cc82611f6f565b600182528160005b60209081811015612751576020916127ea6127a6565b908285010152016127d4565b60409081519161280583611fb8565b600283528260005b82811061281957505050565b6020906128246127a6565b8282850101520161280d565b6040519061283d82611f6f565b600f82526e6e756d546f6b656e486f6c6465727360881b6020830152565b60001981146124a65760010190565b8051156128775760200190565b634e487b7160e01b600052603260045260246000fd5b8051600110156128775760400190565b8051600210156128775760600190565b604051906128ba82611f6f565b600b82526a746f74616c537570706c7960a81b6020830152565b604051906128e182611f6f565b600c82526b185b5bdd5b9d109d5c9b995960a21b6020830152565b60015490916001600160a01b039182163003612b005761295561295b9161294d61292461329a565b91612937818861293261329a565b6123bd565b61294260095461285b565b600955600a54612499565b600a55612b67565b92612b67565b9060008315612afb575060015b60ff8091166001018181116124a6578160008515612af457508060015b16911601908082116124a65761299b9116612756565b6129a36127bf565b9360409384516129b281611f9d565b6000815285516129c181611f9d565b600081528651916129d183611f9d565b600083528751986129e18a611f3e565b8952602089019586528789015260608801526080870152612a25600954865190612a0a82611f6f565b612a12612b12565b82526020820152845190610c698261286a565b508115612aec575b50612ab7575b50612a56612a42600a54612c30565b835190612a4e82611f6f565b612a12612b3a565b5060045416803b15611f2357815163ef1fe0af60e01b8152926000918491829084908290612a879060048301611cbe565b03925af1908115612aad5750612a9e575b50600190565b612aa790611f8a565b38612a98565b513d6000823e3d90fd5b612ae59060075490845191612acb83611f6f565b612ad3612830565b8352602083015251906113aa8261288d565b5038612a33565b905038612a2d565b8190612985565b612968565b6040516308e3edd160e41b8152600490fd5b60405190612b1f82611f6f565b600c82526b6e756d5472616e736665727360a01b6020830152565b60405190612b4782611f6f565b6011825270185b5bdd5b9d151c985b9cd9995c9c9959607a1b6020830152565b60018060a01b0316600090808252600660205260ff604083205416600080516020613348833981519152602052604083205415811580612c28575b15612bd35750508152600660205260409020805460ff19166001179055600754612bcb9061285b565b600755600190565b90915081612c20575b50612be45790565b600660205260408120805460ff19169055600754908115612c0c575060001901600755600190565b634e487b7160e01b81526011600452602490fd5b905038612bdc565b508015612ba2565b8015612ce957612c54670de0b6b3a7640000612c4d818404612d07565b9206612d07565b601281511015612c9b57612c966040519182602091600360fc1b83830152612c86815180926021958686019101611c49565b8101036001810184520182611fd3565b612c54565b906021611cbb916040519381612cbb869351809260208087019101611c49565b8201601760f91b6020820152612cda8251809360208785019101611c49565b01036001810184520182611fd3565b50604051612cf681611f6f565b60018152600360fc1b602082015290565b806000917a184f03e93ff9f4daa797ed6e38ed64bf6a1f01000000000000000080821015612e61575b506d04ee2d6d415b85acef810000000080831015612e52575b50662386f26fc1000080831015612e43575b506305f5e10080831015612e34575b5061271080831015612e25575b506064821015612e15575b600a80921015612e0b575b60019081602181860195612da087611ff4565b96612dae6040519889611fd3565b808852612dbd601f1991611ff4565b01366020890137860101905b612dd5575b5050505090565b600019019083906f181899199a1a9b1b9c1cb0b131b232b360811b8282061a835304918215612e0657919082612dc9565b612dce565b9160010191612d8d565b9190606460029104910191612d82565b60049193920491019138612d77565b60089193920491019138612d6a565b60109193920491019138612d5b565b60209193920491019138612d49565b604093508104915038612d30565b9081511561307757600091828080805b8451871015613020576001600160f81b0319601760f91b81612ea18a89613089565b511614612fc857600360fc1b81612eb88a89613089565b511610908115612fae575b50612f745781612f1457600a908181029181830414901517156124a657612eea8786613089565b5160f81c90602f1982019182116124a657612f0e91612f0891612499565b9661285b565b95612e7f565b9560128310612f27575b612f0e9061285b565b9192600a908181029181830414901517156124a657612f468386613089565b5160f81c602f1981019081116124a657612f66612f6c91612f0e93612499565b9461285b565b929050612f1e565b60405163df70480560e01b815260206004820152601160248201527024b73b30b634b21031b430b930b1ba32b960791b6044820152606490fd5b603960f81b9150612fbf8988613089565b51161138612ec3565b509590612fda57612f0e60019161285b565b60405163df70480560e01b815260206004820152601d60248201527f4d756c7469706c6520646563696d616c20706f696e747320666f756e640000006044820152606490fd5b949550509091505b601281106130545750670de0b6b3a7640000918281029281840414901517156124a657611cbb91612499565b90600a908181029181830414901517156124a657613072909161285b565b613028565b604051630626ad3360e01b8152600490fd5b908151811015612877570160200190565b60409081516130a881611f3e565b60609081815281608060209282848201528287820152828082015201528351936130d185611fb8565b600285528160005b828110613284575050805192608084018481106001600160401b03821117611f595782526003845260005b81811061326e575061326a9394956131bc9183519061312282611f9d565b6000825284519061313282611f9d565b6000825285519261314284611f9d565b600084528651996131528b611f3e565b8a52878a01948552868a0152880152608087015261319260075484519061317882611f6f565b613180612830565b825286820152825190610c698261286a565b50600954908351916131a383611f6f565b6131ab612b12565b83528583015251906113aa8261288d565b506131f16131cb600a54612c30565b8251906131d782611f6f565b6131df612b3a565b825284820152855190610c698261286a565b5061323361320d60008051602061338883398151915254612c30565b82519061321982611f6f565b6132216128ad565b8252848201528551906113aa8261288d565b5061323f600854612c30565b90519161324b83611f6f565b6132536128d4565b83528201528251906132648261289d565b5261289d565b5090565b83906132786127a6565b82828801015201613104565b61328c612700565b8282890101520182906130d9565b7fac0974bec39a17e36ba4a6b4d238ff944bacb478cbed5efcae784d7bf4f2ff80546001600160a01b039081163381036133415760206004916040519283809263348397e760e21b82525afa908115613335576000916132fb575b50905090565b6020813d821161332d575b8161331360209383611fd3565b8101031261028857519182168203610240575080386132f5565b3d9150613306565b6040513d6000823e3d90fd5b5050339056fe52c63247e1f47db19d5ce0460030c497f067ca4cebf71ba98eeadabe20bace009016d09d72d40fdae2fd8ceac6b6234c7706214fd39c1cd1e609a0528c19930052c63247e1f47db19d5ce0460030c497f067ca4cebf71ba98eeadabe20bace02ddf252ad1be2c89b69c2b068fc378daa952ba7f163c4a11628f55a4df523b3efa264697066735822122013a022d6117c5430352a225335d46e2958ff8163d3acc29468052db8da0179ef64736f6c63430008140033",
  "linkReferences": {},
  "deployedLinkReferences": {}
}