{
  "_format": "hh-sol-artifact-1",
  "contractName": "MathPrimitive",
  "sourceName": "contracts/primitives/MathPrimitive.sol",
  "abi": [
    {
      "inputs": [
        {
          "internalType": "address",
          "name": "llmPrecompile",
          "type": "address"
        },
        {
          "internalType": "string",
          "name": "metadata",
          "type": "string"
        },
        {
          "internalType": "address",
          "name": "primitiveStorageAddress",
          "type": "address"
        }
      ],
      "stateMutability": "nonpayable",
      "type": "constructor"
    },
    {
      "inputs": [],
      "name": "DivisionByZero",
      "type": "error"
    },
    {
      "inputs": [],
      "name": "InvalidInitialization",
      "type": "error"
    },
    {
      "inputs": [],
      "name": "NotInitializing",
      "type": "error"
    },
    {
      "inputs": [],
      "name": "OnlyProxy",
      "type": "error"
    },
    {
      "inputs": [],
      "name": "Overflow",
      "type": "error"
    },
    {
      "inputs": [
        {
          "internalType": "address",
          "name": "owner",
          "type": "address"
        }
      ],
      "name": "OwnableInvalidOwner",
      "type": "error"
    },
    {
      "inputs": [
        {
          "internalType": "address",
          "name": "account",
          "type": "address"
        }
      ],
      "name": "OwnableUnauthorizedAccount",
      "type": "error"
    },
    {
      "anonymous": false,
      "inputs": [
        {
          "indexed": false,
          "internalType": "uint64",
          "name": "version",
          "type": "uint64"
        }
      ],
      "name": "Initialized",
      "type": "event"
    },
    {
      "anonymous": false,
      "inputs": [
        {
          "indexed": true,
          "internalType": "address",
          "name": "previousOwner",
          "type": "address"
        },
        {
          "indexed": true,
          "internalType": "address",
          "name": "newOwner",
          "type": "address"
        }
      ],
      "name": "OwnershipTransferred",
      "type": "event"
    },
    {
      "inputs": [],
      "name": "LLM_PRECOMPILE",
      "outputs": [
        {
          "internalType": "contract ILLM",
          "name": "",
          "type": "address"
        }
      ],
      "stateMutability": "view",
      "type": "function"
    },
    {
      "inputs": [
        {
          "internalType": "uint256",
          "name": "a",
          "type": "uint256"
        },
        {
          "internalType": "uint256",
          "name": "b",
          "type": "uint256"
        }
      ],
      "name": "add",
      "outputs": [
        {
          "internalType": "uint256",
          "name": "",
          "type": "uint256"
        }
      ],
      "stateMutability": "pure",
      "type": "function"
    },
    {
      "inputs": [
        {
          "internalType": "uint256",
          "name": "a",
          "type": "uint256"
        },
        {
          "internalType": "uint256",
          "name": "b",
          "type": "uint256"
        }
      ],
      "name": "ceilDiv",
      "outputs": [
        {
          "internalType": "uint256",
          "name": "",
          "type": "uint256"
        }
      ],
      "stateMutability": "pure",
      "type": "function"
    },
    {
      "inputs": [
        {
          "internalType": "uint256",
          "name": "a",
          "type": "uint256"
        },
        {
          "internalType": "uint256",
          "name": "b",
          "type": "uint256"
        }
      ],
      "name": "divide",
      "outputs": [
        {
          "internalType": "uint256",
          "name": "",
          "type": "uint256"
        }
      ],
      "stateMutability": "pure",
      "type": "function"
    },
    {
      "inputs": [
        {
          "internalType": "uint256",
          "name": "a",
          "type": "uint256"
        },
        {
          "internalType": "uint256",
          "name": "b",
          "type": "uint256"
        }
      ],
      "name": "equal",
      "outputs": [
        {
          "internalType": "bool",
          "name": "",
          "type": "bool"
        }
      ],
      "stateMutability": "pure",
      "type": "function"
    },
    {
      "inputs": [],
      "name": "getInfo",
      "outputs": [
        {
          "internalType": "string",
          "name": "contractName",
          "type": "string"
        },
        {
          "internalType": "string",
          "name": "customRules",
          "type": "string"
        },
        {
          "internalType": "string",
          "name": "primitiveName",
          "type": "string"
        }
      ],
      "stateMutability": "view",
      "type": "function"
    },
    {
      "inputs": [],
      "name": "getMetadata",
      "outputs": [
        {
          "internalType": "string",
          "name": "",
          "type": "string"
        }
      ],
      "stateMutability": "view",
      "type": "function"
    },
    {
      "inputs": [],
      "name": "getPrimitiveAddress",
      "outputs": [
        {
          "internalType": "address",
          "name": "",
          "type": "address"
        }
      ],
      "stateMutability": "view",
      "type": "function"
    },
    {
      "inputs": [],
      "name": "getRobotState",
      "outputs": [
        {
          "components": [
            {
              "components": [
                {
                  "internalType": "string",
                  "name": "name",
                  "type": "string"
                },
                {
                  "internalType": "string",
                  "name": "value",
                  "type": "string"
                }
              ],
              "internalType": "struct IRobotStateEmitter.NamedFloat[]",
              "name": "floats",
              "type": "tuple[]"
            },
            {
              "components": [
                {
                  "internalType": "string",
                  "name": "name",
                  "type": "string"
                },
                {
                  "internalType": "uint256",
                  "name": "value",
                  "type": "uint256"
                }
              ],
              "internalType": "struct IRobotStateEmitter.NamedUint[]",
              "name": "uints",
              "type": "tuple[]"
            },
            {
              "components": [
                {
                  "internalType": "string",
                  "name": "name",
                  "type": "string"
                },
                {
                  "internalType": "string",
                  "name": "value",
                  "type": "string"
                }
              ],
              "internalType": "struct IRobotStateEmitter.NamedString[]",
              "name": "strings",
              "type": "tuple[]"
            },
            {
              "components": [
                {
                  "internalType": "string",
                  "name": "name",
                  "type": "string"
                },
                {
                  "internalType": "address",
                  "name": "value",
                  "type": "address"
                }
              ],
              "internalType": "struct IRobotStateEmitter.NamedAddress[]",
              "name": "addresses",
              "type": "tuple[]"
            },
            {
              "components": [
                {
                  "internalType": "string",
                  "name": "name",
                  "type": "string"
                },
                {
                  "internalType": "bool",
                  "name": "value",
                  "type": "bool"
                }
              ],
              "internalType": "struct IRobotStateEmitter.NamedBool[]",
              "name": "bools",
              "type": "tuple[]"
            }
          ],
          "internalType": "struct IRobotStateEmitter.StateChangePayload",
          "name": "",
          "type": "tuple"
        }
      ],
      "stateMutability": "view",
      "type": "function"
    },
    {
      "inputs": [
        {
          "internalType": "uint256",
          "name": "a",
          "type": "uint256"
        },
        {
          "internalType": "uint256",
          "name": "b",
          "type": "uint256"
        }
      ],
      "name": "greaterThan",
      "outputs": [
        {
          "internalType": "bool",
          "name": "",
          "type": "bool"
        }
      ],
      "stateMutability": "pure",
      "type": "function"
    },
    {
      "inputs": [
        {
          "internalType": "uint256",
          "name": "a",
          "type": "uint256"
        },
        {
          "internalType": "uint256",
          "name": "b",
          "type": "uint256"
        }
      ],
      "name": "greaterThanOrEqual",
      "outputs": [
        {
          "internalType": "bool",
          "name": "",
          "type": "bool"
        }
      ],
      "stateMutability": "pure",
      "type": "function"
    },
    {
      "inputs": [
        {
          "internalType": "uint256",
          "name": "a",
          "type": "uint256"
        },
        {
          "internalType": "uint256",
          "name": "b",
          "type": "uint256"
        }
      ],
      "name": "lessThan",
      "outputs": [
        {
          "internalType": "bool",
          "name": "",
          "type": "bool"
        }
      ],
      "stateMutability": "pure",
      "type": "function"
    },
    {
      "inputs": [
        {
          "internalType": "uint256",
          "name": "a",
          "type": "uint256"
        },
        {
          "internalType": "uint256",
          "name": "b",
          "type": "uint256"
        }
      ],
      "name": "lessThanOrEqual",
      "outputs": [
        {
          "internalType": "bool",
          "name": "",
          "type": "bool"
        }
      ],
      "stateMutability": "pure",
      "type": "function"
    },
    {
      "inputs": [
        {
          "internalType": "uint256",
          "name": "a",
          "type": "uint256"
        },
        {
          "internalType": "uint256",
          "name": "b",
          "type": "uint256"
        }
      ],
      "name": "max",
      "outputs": [
        {
          "internalType": "uint256",
          "name": "",
          "type": "uint256"
        }
      ],
      "stateMutability": "pure",
      "type": "function"
    },
    {
      "inputs": [
        {
          "internalType": "uint256",
          "name": "a",
          "type": "uint256"
        },
        {
          "internalType": "uint256",
          "name": "b",
          "type": "uint256"
        }
      ],
      "name": "min",
      "outputs": [
        {
          "internalType": "uint256",
          "name": "",
          "type": "uint256"
        }
      ],
      "stateMutability": "pure",
      "type": "function"
    },
    {
      "inputs": [
        {
          "internalType": "uint256",
          "name": "a",
          "type": "uint256"
        },
        {
          "internalType": "uint256",
          "name": "b",
          "type": "uint256"
        }
      ],
      "name": "mod",
      "outputs": [
        {
          "internalType": "uint256",
          "name": "",
          "type": "uint256"
        }
      ],
      "stateMutability": "pure",
      "type": "function"
    },
    {
      "inputs": [
        {
          "internalType": "uint256",
          "name": "x",
          "type": "uint256"
        },
        {
          "internalType": "uint256",
          "name": "y",
          "type": "uint256"
        },
        {
          "internalType": "uint256",
          "name": "denominator",
          "type": "uint256"
        }
      ],
      "name": "mulDiv",
      "outputs": [
        {
          "internalType": "uint256",
          "name": "",
          "type": "uint256"
        }
      ],
      "stateMutability": "pure",
      "type": "function"
    },
    {
      "inputs": [
        {
          "internalType": "uint256",
          "name": "a",
          "type": "uint256"
        },
        {
          "internalType": "uint256",
          "name": "b",
          "type": "uint256"
        }
      ],
      "name": "multiply",
      "outputs": [
        {
          "internalType": "uint256",
          "name": "",
          "type": "uint256"
        }
      ],
      "stateMutability": "pure",
      "type": "function"
    },
    {
      "inputs": [
        {
          "internalType": "uint256",
          "name": "a",
          "type": "uint256"
        },
        {
          "internalType": "uint256",
          "name": "b",
          "type": "uint256"
        }
      ],
      "name": "notEqual",
      "outputs": [
        {
          "internalType": "bool",
          "name": "",
          "type": "bool"
        }
      ],
      "stateMutability": "pure",
      "type": "function"
    },
    {
      "inputs": [],
      "name": "owner",
      "outputs": [
        {
          "internalType": "address",
          "name": "",
          "type": "address"
        }
      ],
      "stateMutability": "view",
      "type": "function"
    },
    {
      "inputs": [],
      "name": "renounceOwnership",
      "outputs": [],
      "stateMutability": "nonpayable",
      "type": "function"
    },
    {
      "inputs": [
        {
          "internalType": "address",
          "name": "owner_",
          "type": "address"
        },
        {
          "internalType": "string",
          "name": "customRules",
          "type": "string"
        }
      ],
      "name": "robotContractInit",
      "outputs": [],
      "stateMutability": "nonpayable",
      "type": "function"
    },
    {
      "inputs": [
        {
          "internalType": "address",
          "name": "emitter",
          "type": "address"
        }
      ],
      "name": "setRobotStateEmitter",
      "outputs": [],
      "stateMutability": "nonpayable",
      "type": "function"
    },
    {
      "inputs": [
        {
          "internalType": "uint256",
          "name": "a",
          "type": "uint256"
        }
      ],
      "name": "sqrt",
      "outputs": [
        {
          "internalType": "uint256",
          "name": "",
          "type": "uint256"
        }
      ],
      "stateMutability": "pure",
      "type": "function"
    },
    {
      "inputs": [
        {
          "internalType": "uint256",
          "name": "a",
          "type": "uint256"
        },
        {
          "internalType": "uint256",
          "name": "b",
          "type": "uint256"
        }
      ],
      "name": "subtract",
      "outputs": [
        {
          "internalType": "uint256",
          "name": "",
          "type": "uint256"
        }
      ],
      "stateMutability": "pure",
      "type": "function"
    },
    {
      "inputs": [
        {
          "internalType": "address",
          "name": "newOwner",
          "type": "address"
        }
      ],
      "name": "transferOwnership",
      "outputs": [],
      "stateMutability": "nonpayable",
      "type": "function"
    }
  ],
  "bytecode": "0x60c06040818152346200068657600062001c8f8038038091620000238287620006b5565b853983019260608185031262000682576200003e81620006d9565b906020948582015160018060401b0390818111620003d257830191601f938185850112156200067e5783518381116200066a57885194601f19936200008a83890186168d0188620006b5565b8287528b8383010111620006665791620000b08a92620000b7948d808a019101620006ee565b01620006d9565b918751958887018781108382111762000652578952600495868852630dac2e8d60e31b8b8901527ff0c57e16840df040f15088dc2f81fe391c3923bec73e23a9662efc9c229c6a009a8b5492848416938c818615918262000643575b50506001809614908162000638575b1590816200062e575b506200061e576001600160401b0319811685178e55808d1c60ff1615908e9082620005ff575b50506200015d6200073a565b620001676200073a565b3315620005e857908c9d838d9e9c9d937f9016d09d72d40fdae2fd8ceac6b6234c7706214fd39c1cd1e609a0528c1993009d8e549e8f339060018060a01b031916179055519060018060a01b039e8f967f8be0079c531659141344cd1fd0a4f28419497f9722a3daafe3b4186f6b6457e0883393169180a3620005a9575b50505016608052865184811162000596578b548481811c911680156200058b575b83821014620004a55783811162000541575b5080828d858311600114620004e25791620004d6575b50600019600383901b1c191690841b178b555b8951938411620004c35760039485548481811c91168015620004b8575b83821014620004a5579081848c999897969594931162000447575b5081928511600114620003e2575050829182918c93620003d6575b501b9160001990841b1c19161790555b3060a0521690813b15620003d257620002fa8692839289519485809481936309a7fd2760e11b8352308a84015260606024840152620002e7606484018d62000713565b8381036003190160448501529062000713565b03925af18015620003c857620003b2575b5081608051169160a0511690823b15620003ae57916200035093918580948851968795869485936386eb164760e01b85528401528a6024840152604483019062000713565b03925af18015620003a45762000389575b825161151290816200077d823960805181610639015260a0518181816102cc01526105c70152f35b6200039582916200068b565b620003a1578062000361565b80fd5b83513d84823e3d90fd5b8480fd5b620003c0909491946200068b565b92386200030b565b86513d87823e3d90fd5b8580fd5b8b015192503862000294565b84939492919216858d52828d20928d905b8d8383106200042d57505050831162000414575b5050811b019055620002a4565b8a015160001983861b60f8161c19169055388062000407565b84015185558c9950938601939283019290810190620003f3565b909192939495809798508d52828d208480880160051c8201928589106200049b575b8d9a99989796959493910160051c909101908e5b8282106200048d57505062000279565b81558c995085018e6200047d565b9250819262000469565b634e487b7160e01b8d5260228a5260248dfd5b90607f16906200025e565b634e487b7160e01b8b526041885260248bfd5b9050880151386200022e565b9088879416828052858320925b868d8383106200052b57505050831162000511575b5050811b018b5562000241565b8a015160001960f88460031b161c19169055388062000504565b84015185558996909401939283019201620004ef565b8c8052828d208480840160051c82019285851062000581575b0160051c019085908e5b838210620005755750505062000218565b81550185908e62000564565b925081926200055a565b90607f169062000206565b634e487b7160e01b8c526041895260248cfd5b7fc7f505b2f371ae2175ee4913f4499e1f2633a7b5936321eed1cdaeb6115181d29268ff0000000000000000198154169055878152a1388381620001e5565b8c51631e4fbdf760e01b8152808b018d9052602490fd5b6001600160481b031916680100000000000000011790558d3862000151565b8c5163f92ee8a960e01b81528a90fd5b905015386200012b565b303b15915062000122565b60ff92501c1615818e62000113565b634e487b7160e01b89526041600452602489fd5b8880fd5b634e487b7160e01b88526041600452602488fd5b8680fd5b5080fd5b600080fd5b6001600160401b0381116200069f57604052565b634e487b7160e01b600052604160045260246000fd5b601f909101601f19168101906001600160401b038211908210176200069f57604052565b51906001600160a01b03821682036200068657565b60005b838110620007025750506000910152565b8181015183820152602001620006f1565b906020916200072e81518092818552858086019101620006ee565b601f01601f1916010190565b60ff7ff0c57e16840df040f15088dc2f81fe391c3923bec73e23a9662efc9c229c6a005460401c16156200076a57565b604051631afcd79f60e31b8152600490fdfe6040608081526004908136101561001557600080fd5b6000803560e01c80630950c52414610c4d578063165c4a1614610c345780632215ea7c14610c185780632940325f14610bd75780633019162614610bbc5780633ef5e44514610ba357806348f24ceb14610b875780635a9b0b89146108f2578063677342ce146108d35780636d5433e6146108b0578063715018a614610846578063771602f71461080d5780637a5b4f59146107265780637ae2b5c7146107035780638b14d27d146106e65780638da5cb5b146106b05780639cb3532714610668578063a3d5dbe614610624578063aa9a0912146105f6578063c6f864e3146105b2578063c732f4b0146101fc578063ca4e89bf146101e0578063e2ff45e1146101bf578063f2fde38b14610192578063f43f523a146101795763f88e9fbf1461013e57600080fd5b34610176575061015661015036610f32565b906110a1565b919015610167576020925051908152f35b516323d359a360e01b81529050fd5b80fd5b5034610176575061015661018c36610f32565b906110c0565b5034610176576020366003190112610176576101bc6101af610f4d565b6101b7610f63565b610fb1565b80f35b5090346101dc576020906101d236610f32565b9091519110158152f35b5080fd5b5090346101dc576020906101f336610f32565b91519114158152f35b5090346101dc57806003193601126101dc57610216610f4d565b60249081359467ffffffffffffffff9283871161044f573660238801121561044f5786820135918483116105ae573682848a0101116105ae577ff0c57e16840df040f15088dc2f81fe391c3923bec73e23a9662efc9c229c6a009485549460ff86891c161594828716968715806105a7575b6001809914908161059d575b159081610594575b506105845767ffffffffffffffff1981168817895586610565575b506102c0611335565b6001600160a01b0390307f00000000000000000000000000000000000000000000000000000000000000008316146105555761031e6bffffffffffffffffffffffff60a01b9330858b5416178a55610316611335565b6101b7611335565b61032960025461128b565b601f81116104ef575b508a9b601f821160011461046057868c9d83928e9a9b9c9d9e93610453575b505050600019600383901b1c191690891b176002555b7fac0974bec39a17e36ba4a6b4d238ff944bacb478cbed5efcae784d7bf4f2ff805416809184541617835561039a611423565b813b1561044f5785916103c1918b5197888094819363ef1fe0af60e01b8352898301610ce3565b03925af180156104455761041d575b505050506103dc578380f35b7fc7f505b2f371ae2175ee4913f4499e1f2633a7b5936321eed1cdaeb6115181d29260209268ff000000000000000019815416905551908152a13880808380f35b8398949811610434575050845293388080806103d0565b634e487b7160e01b84526041905282fd5b88513d8b823e3d90fd5b8580fd5b0101359050863880610351565b60028c527f405787fa12a823e0f2b7631cc41b3ba8828b3321ca811111fa75cd3aa3bb5ace9c601f1983168d5b8181106104d4575091888e9f928c9d9e9f9b9c958095106104b8575b50505050811b01600255610367565b60001960f88660031b161c1992010135169055388088816104a9565b919e8f908a8d92860101358155019e6020019160200161048d565b60028c527f405787fa12a823e0f2b7631cc41b3ba8828b3321ca811111fa75cd3aa3bb5ace601f830160051c8101916020841061054b575b601f0160051c019089905b828110610540575050610332565b8d8155018990610532565b9091508190610527565b89516308e3edd160e41b81528590fd5b68ffffffffffffffffff191668010000000000000001178855386102b7565b895163f92ee8a960e01b81528590fd5b9050153861029c565b303b159150610294565b5086610288565b8680fd5b5090346101dc57816003193601126101dc57517f00000000000000000000000000000000000000000000000000000000000000006001600160a01b03168152602090f35b5034610176576060366003190112610176575061061d6020926044359060243590356111ef565b9051908152f35b5090346101dc57816003193601126101dc57517f00000000000000000000000000000000000000000000000000000000000000006001600160a01b03168152602090f35b50346101765761067736610f32565b929091831561069e575060016106936020946000198501611057565b019051911515028152f35b634e487b71905260126020526024601cfd5b5090346101dc57816003193601126101dc576000805160206114bd8339815191525490516001600160a01b039091168152602090f35b5090346101dc576020906106f936610f32565b9091519111158152f35b5090346101dc5760209061071636610f32565b9091519181808210911802188152f35b5090346101dc57816003193601126101dc578051908280546107478161128b565b808552916001918083169081156107e55750600114610789575b50505061077382610785940383611313565b51918291602083526020830190610c76565b0390f35b80809650527f290decd9548b62a8d60345a988386fc84ba6bc95484008f6362f93160ef3e5635b8286106107cd575050506107738260206107859582010194610761565b805460208787018101919091529095019481016107b0565b61078597508693506020925061077394915060ff191682840152151560051b82010194610761565b5034610176575061082661082036610f32565b90611025565b919015610837576020925051908152f35b51631a93c68960e11b81529050fd5b503461017657806003193601126101765761085f610f63565b6000805160206114bd83398151915280546001600160a01b0319811690915581906001600160a01b03167f8be0079c531659141344cd1fd0a4f28419497f9722a3daafe3b4186f6b6457e08280a380f35b5090346101dc576020906108c336610f32565b9091519181808211911802188152f35b5034610176576020366003190112610176575061061d602092356110cf565b5090346101dc57816003193601126101dc57805190827f9f2cbf14d45099f51bf985adb3c53b5e52f3a7db48a42b9fe7e952864c20df65838154926109368461128b565b928383526001948581169081600014610b655750600114610b08575b5061095f92500384611313565b8151908482600254916109718361128b565b80835292848116908115610ae95750600114610a8b575b61099492500383611313565b8251948091600354916109a68361128b565b80895292828116908115610a5f5750600114610a04575b6109e987610785888b6109f78a6109d6838c0384611313565b8351968796606088526060880190610c76565b908682036020880152610c76565b9184830390850152610c76565b9250600383527fc2575a0e9e593c00f959f8c92f12db2869c3395a3b0502d05e2516446f71f85b5b828410610a475750505084016020016109f7826109d66109bd565b80546020858a01810191909152909301928101610a2c565b60ff19166020808b019190915293151560051b890190930193506109f792508491506109d690506109bd565b5060028752908690837f405787fa12a823e0f2b7631cc41b3ba8828b3321ca811111fa75cd3aa3bb5ace5b828410610acf5750505090602061099492820101610988565b602092945080548385890101520191019091838593610ab6565b6020925061099494915060ff191682840152151560051b820101610988565b875250908590837fdcc206f99ae966222e0d6832d40f57fbf12f52e8daee3044f47ed28e289f31d75b828410610b4b5750505090602061095f9282010187610952565b6020929450805483858a0101520191019091838693610b31565b90506020925061095f94915060ff191682840152151560051b82010187610952565b5090346101dc57602090610b9a36610f32565b90915191118152f35b50346101765750610826610bb636610f32565b9061103e565b5090346101dc57602090610bcf36610f32565b915191148152f35b5082346101dc5760203660031901126101dc57610bf2610f4d565b610bfa610f63565b81546001600160a01b0319166001600160a01b039190911617905580f35b5090346101dc57602090610c2b36610f32565b90915191108152f35b50346101765750610826610c4736610f32565b90611077565b5090346101dc57816003193601126101dc5761078590610c6b611423565b905191829182610ce3565b919082519283825260005b848110610ca2575050826000602080949584010152601f8019910116010190565b602081830181015184830182015201610c81565b610ce0916020610ccf8351604084526040840190610c76565b920151906020818403910152610c76565b90565b90602080835260c083019082519160a082860152825180915260e08501908260e08260051b8801019401916000905b828210610f02575050505080830151601f199360409385878203018588015282518082528482019185808360051b8301019501926000915b838310610ebd57505050505083810151918587820301606088015282518082528482019185808360051b8301019501926000915b838310610e8b5750505050506060810151918587820301608088015282518082528482019185808360051b8301019501926000915b838310610e3e575050505050608001519460a085828403019101528451928382528282019083808660051b8501019701956000935b868510610dfa57505050505050505090565b90919293949596978680828585600195030188528b51908280610e2484518b85528b850190610c76565b93015115159101529a019501950193969594929190610de8565b909192939587808a838d869d9e9c9d6001960301875282610e698c5193845190808552840190610c76565b9281878060a01b03910151169101529801930193019193929098979698610db3565b90919293958780610eaa838d869d9e9c9d600196030187528a51610cb6565b9801930193019193929098979698610d7e565b909192939587808a838d869d9e9c9d600196030187528280610ee98d5194855190808652850190610c76565b9301519101529801930193019193929098979698610d4a565b9091929593948580610f2060019360df198c82030186528a51610cb6565b98019201920190929195949395610d12565b6040906003190112610f48576004359060243590565b600080fd5b600435906001600160a01b0382168203610f4857565b6000805160206114bd833981519152546001600160a01b0390811681610f87611376565b1603610f905750565b602490610f9b611376565b60405163118cdaa760e01b815291166004820152fd5b6001600160a01b0390811690811561100c576000805160206114bd83398151915280546001600160a01b031981168417909155167f8be0079c531659141344cd1fd0a4f28419497f9722a3daafe3b4186f6b6457e0600080a3565b604051631e4fbdf760e01b815260006004820152602490fd5b919082019182106110365760019190565b600091508190565b919082811161104e576001920390565b50600091508190565b8115611061570490565b634e487b7160e01b600052601260045260246000fd5b919082156110975761108c8184029384611057565b036110365760019190565b5060019150600090565b9080156110b6576110b191611057565b600191565b5050600090600090565b9190801561104e576001920690565b6001808211156111eb5761118c908083600160801b8110156111d9575b80600160401b60049210156111cc575b6401000000008110156111bf575b620100008110156111b2575b6101008110156111a6575b601081101561119a575b1015611193575b600302811c6111418185611057565b01811c61114e8185611057565b01811c61115b8185611057565b01811c6111688185611057565b01811c6111758185611057565b01811c6111828185611057565b01901c8092611057565b8111900390565b811b611132565b811c9160021b9161112b565b60081c91811b91611121565b60101c9160081b91611116565b60201c9160101b9161110a565b60401c9160201b916110fc565b50600160401b9050608084901c6110ec565b5090565b91818302916000198185099383808610950394808603951461127e5784831115611265579082910981600003821680920460028082600302188083028203028083028203028083028203028083028203028083028203028092029003029360018380600003040190848311900302920304170290565b82634e487b71600052156003026011186020526024601cfd5b505090610ce09250611057565b90600182811c921680156112bb575b60208310146112a557565b634e487b7160e01b600052602260045260246000fd5b91607f169161129a565b60a0810190811067ffffffffffffffff8211176112e157604052565b634e487b7160e01b600052604160045260246000fd5b6020810190811067ffffffffffffffff8211176112e157604052565b90601f8019910116810190811067ffffffffffffffff8211176112e157604052565b60ff7ff0c57e16840df040f15088dc2f81fe391c3923bec73e23a9662efc9c229c6a005460401c161561136457565b604051631afcd79f60e31b8152600490fd5b7fac0974bec39a17e36ba4a6b4d238ff944bacb478cbed5efcae784d7bf4f2ff80546001600160a01b0390811633810361141d5760206004916040519283809263348397e760e21b82525afa908115611411576000916113d7575b50905090565b6020813d8211611409575b816113ef60209383611313565b810103126101dc57519182168203610176575080386113d1565b3d91506113e2565b6040513d6000823e3d90fd5b50503390565b604060808151611432816112c5565b6060918183809352826020820152828582015282808201520152815191611458836112f7565b60008352805191611468836112f7565b600083528151611477816112f7565b60008152825192611487846112f7565b60008452805194611497866112f7565b600086528151966114a7886112c5565b8752602087015285015283015260808201529056fe9016d09d72d40fdae2fd8ceac6b6234c7706214fd39c1cd1e609a0528c199300a26469706673582212209195f3bdf96c656f003cdcf62cfcbb9b734b073ea813547c018175d776c90df064736f6c63430008140033",
  "linkReferences": {},
  "deployedLinkReferences": {}
}