{
  "_format": "hh-sol-artifact-1",
  "contractName": "PythonPrimitive",
  "sourceName": "contracts/primitives/system/PythonPrimitive.sol",
  "abi": [
    {
      "inputs": [
        {
          "internalType": "address",
          "name": "llmPrecompile",
          "type": "address"
        },
        {
          "internalType": "string",
          "name": "metadata",
          "type": "string"
        }
      ],
      "stateMutability": "nonpayable",
      "type": "constructor"
    },
    {
      "inputs": [],
      "name": "ArrayCannotBeEmpty",
      "type": "error"
    },
    {
      "inputs": [],
      "name": "DivisionByZero",
      "type": "error"
    },
    {
      "inputs": [],
      "name": "EmptyInputString",
      "type": "error"
    },
    {
      "inputs": [
        {
          "internalType": "string",
          "name": "reason",
          "type": "string"
        }
      ],
      "name": "InvalidString",
      "type": "error"
    },
    {
      "inputs": [],
      "name": "Overflow",
      "type": "error"
    },
    {
      "inputs": [
        {
          "internalType": "address",
          "name": "owner",
          "type": "address"
        }
      ],
      "name": "OwnableInvalidOwner",
      "type": "error"
    },
    {
      "inputs": [
        {
          "internalType": "address",
          "name": "account",
          "type": "address"
        }
      ],
      "name": "OwnableUnauthorizedAccount",
      "type": "error"
    },
    {
      "anonymous": false,
      "inputs": [
        {
          "indexed": true,
          "internalType": "address",
          "name": "previousOwner",
          "type": "address"
        },
        {
          "indexed": true,
          "internalType": "address",
          "name": "newOwner",
          "type": "address"
        }
      ],
      "name": "OwnershipTransferred",
      "type": "event"
    },
    {
      "inputs": [],
      "name": "DECIMALS",
      "outputs": [
        {
          "internalType": "uint8",
          "name": "",
          "type": "uint8"
        }
      ],
      "stateMutability": "view",
      "type": "function"
    },
    {
      "inputs": [],
      "name": "LLM_PRECOMPILE_BASE",
      "outputs": [
        {
          "internalType": "contract ILLM",
          "name": "",
          "type": "address"
        }
      ],
      "stateMutability": "view",
      "type": "function"
    },
    {
      "inputs": [
        {
          "internalType": "string",
          "name": "x",
          "type": "string"
        }
      ],
      "name": "abs",
      "outputs": [
        {
          "internalType": "string",
          "name": "",
          "type": "string"
        }
      ],
      "stateMutability": "pure",
      "type": "function"
    },
    {
      "inputs": [
        {
          "internalType": "string",
          "name": "a",
          "type": "string"
        },
        {
          "internalType": "string",
          "name": "b",
          "type": "string"
        }
      ],
      "name": "add",
      "outputs": [
        {
          "internalType": "string",
          "name": "",
          "type": "string"
        }
      ],
      "stateMutability": "pure",
      "type": "function"
    },
    {
      "inputs": [
        {
          "internalType": "string",
          "name": "a",
          "type": "string"
        },
        {
          "internalType": "string",
          "name": "b",
          "type": "string"
        }
      ],
      "name": "ceilDiv",
      "outputs": [
        {
          "internalType": "string",
          "name": "",
          "type": "string"
        }
      ],
      "stateMutability": "pure",
      "type": "function"
    },
    {
      "inputs": [
        {
          "internalType": "string",
          "name": "a",
          "type": "string"
        },
        {
          "internalType": "string",
          "name": "b",
          "type": "string"
        }
      ],
      "name": "divide",
      "outputs": [
        {
          "internalType": "string",
          "name": "",
          "type": "string"
        }
      ],
      "stateMutability": "pure",
      "type": "function"
    },
    {
      "inputs": [
        {
          "internalType": "string",
          "name": "a",
          "type": "string"
        },
        {
          "internalType": "string",
          "name": "b",
          "type": "string"
        }
      ],
      "name": "equal",
      "outputs": [
        {
          "internalType": "bool",
          "name": "",
          "type": "bool"
        }
      ],
      "stateMutability": "pure",
      "type": "function"
    },
    {
      "inputs": [
        {
          "internalType": "string",
          "name": "a",
          "type": "string"
        },
        {
          "internalType": "string",
          "name": "b",
          "type": "string"
        }
      ],
      "name": "greaterThan",
      "outputs": [
        {
          "internalType": "bool",
          "name": "",
          "type": "bool"
        }
      ],
      "stateMutability": "pure",
      "type": "function"
    },
    {
      "inputs": [
        {
          "internalType": "string",
          "name": "a",
          "type": "string"
        },
        {
          "internalType": "string",
          "name": "b",
          "type": "string"
        }
      ],
      "name": "greaterThanOrEqual",
      "outputs": [
        {
          "internalType": "bool",
          "name": "",
          "type": "bool"
        }
      ],
      "stateMutability": "pure",
      "type": "function"
    },
    {
      "inputs": [
        {
          "internalType": "string",
          "name": "a",
          "type": "string"
        },
        {
          "internalType": "string",
          "name": "b",
          "type": "string"
        }
      ],
      "name": "lessThan",
      "outputs": [
        {
          "internalType": "bool",
          "name": "",
          "type": "bool"
        }
      ],
      "stateMutability": "pure",
      "type": "function"
    },
    {
      "inputs": [
        {
          "internalType": "string",
          "name": "a",
          "type": "string"
        },
        {
          "internalType": "string",
          "name": "b",
          "type": "string"
        }
      ],
      "name": "lessThanOrEqual",
      "outputs": [
        {
          "internalType": "bool",
          "name": "",
          "type": "bool"
        }
      ],
      "stateMutability": "pure",
      "type": "function"
    },
    {
      "inputs": [
        {
          "internalType": "string[]",
          "name": "arr",
          "type": "string[]"
        }
      ],
      "name": "max",
      "outputs": [
        {
          "internalType": "string",
          "name": "",
          "type": "string"
        }
      ],
      "stateMutability": "pure",
      "type": "function"
    },
    {
      "inputs": [
        {
          "internalType": "string",
          "name": "a",
          "type": "string"
        },
        {
          "internalType": "string",
          "name": "b",
          "type": "string"
        }
      ],
      "name": "max2",
      "outputs": [
        {
          "internalType": "string",
          "name": "",
          "type": "string"
        }
      ],
      "stateMutability": "pure",
      "type": "function"
    },
    {
      "inputs": [
        {
          "internalType": "string[]",
          "name": "arr",
          "type": "string[]"
        }
      ],
      "name": "min",
      "outputs": [
        {
          "internalType": "string",
          "name": "",
          "type": "string"
        }
      ],
      "stateMutability": "pure",
      "type": "function"
    },
    {
      "inputs": [
        {
          "internalType": "string",
          "name": "a",
          "type": "string"
        },
        {
          "internalType": "string",
          "name": "b",
          "type": "string"
        }
      ],
      "name": "min2",
      "outputs": [
        {
          "internalType": "string",
          "name": "",
          "type": "string"
        }
      ],
      "stateMutability": "pure",
      "type": "function"
    },
    {
      "inputs": [
        {
          "internalType": "string",
          "name": "a",
          "type": "string"
        },
        {
          "internalType": "string",
          "name": "b",
          "type": "string"
        }
      ],
      "name": "mod",
      "outputs": [
        {
          "internalType": "string",
          "name": "",
          "type": "string"
        }
      ],
      "stateMutability": "pure",
      "type": "function"
    },
    {
      "inputs": [
        {
          "internalType": "string",
          "name": "x",
          "type": "string"
        },
        {
          "internalType": "string",
          "name": "y",
          "type": "string"
        },
        {
          "internalType": "string",
          "name": "denominator",
          "type": "string"
        }
      ],
      "name": "mulDiv",
      "outputs": [
        {
          "internalType": "string",
          "name": "",
          "type": "string"
        }
      ],
      "stateMutability": "pure",
      "type": "function"
    },
    {
      "inputs": [
        {
          "internalType": "string",
          "name": "a",
          "type": "string"
        },
        {
          "internalType": "string",
          "name": "b",
          "type": "string"
        }
      ],
      "name": "multiply",
      "outputs": [
        {
          "internalType": "string",
          "name": "",
          "type": "string"
        }
      ],
      "stateMutability": "pure",
      "type": "function"
    },
    {
      "inputs": [
        {
          "internalType": "string",
          "name": "a",
          "type": "string"
        },
        {
          "internalType": "string",
          "name": "b",
          "type": "string"
        }
      ],
      "name": "notEqual",
      "outputs": [
        {
          "internalType": "bool",
          "name": "",
          "type": "bool"
        }
      ],
      "stateMutability": "pure",
      "type": "function"
    },
    {
      "inputs": [],
      "name": "owner",
      "outputs": [
        {
          "internalType": "address",
          "name": "",
          "type": "address"
        }
      ],
      "stateMutability": "view",
      "type": "function"
    },
    {
      "inputs": [
        {
          "internalType": "string",
          "name": "base",
          "type": "string"
        },
        {
          "internalType": "string",
          "name": "exponent",
          "type": "string"
        }
      ],
      "name": "pow",
      "outputs": [
        {
          "internalType": "string",
          "name": "",
          "type": "string"
        }
      ],
      "stateMutability": "pure",
      "type": "function"
    },
    {
      "inputs": [],
      "name": "renounceOwnership",
      "outputs": [],
      "stateMutability": "nonpayable",
      "type": "function"
    },
    {
      "inputs": [
        {
          "internalType": "string",
          "name": "a",
          "type": "string"
        }
      ],
      "name": "sqrt",
      "outputs": [
        {
          "internalType": "string",
          "name": "",
          "type": "string"
        }
      ],
      "stateMutability": "pure",
      "type": "function"
    },
    {
      "inputs": [
        {
          "internalType": "string",
          "name": "a",
          "type": "string"
        },
        {
          "internalType": "string",
          "name": "b",
          "type": "string"
        }
      ],
      "name": "subtract",
      "outputs": [
        {
          "internalType": "string",
          "name": "",
          "type": "string"
        }
      ],
      "stateMutability": "pure",
      "type": "function"
    },
    {
      "inputs": [
        {
          "internalType": "address",
          "name": "newOwner",
          "type": "address"
        }
      ],
      "name": "transferOwnership",
      "outputs": [],
      "stateMutability": "nonpayable",
      "type": "function"
    }
  ],
  "bytecode": "0x60a060409080825234620002025762001a36803803809162000022828562000207565b833981018282820312620002025781516001600160a01b0392908381169081900362000202576020928383015160018060401b039384821162000202570181601f8201121562000202578051848111620001ec578751926200008e601f8301601f191688018562000207565b8184528682840101116200020257620000ad918680850191016200022b565b8551938685019085821085831117620001ec576e507974686f6e5072696d697469766560881b918852600f86528501523315620001d45760008054336001600160a01b03198216811783558851979296929091167f8be0079c531659141344cd1fd0a4f28419497f9722a3daafe3b4186f6b6457e08780a382608052823b15620001d0579185858162000176819562000163849863771a4f8760e01b855230600486015260606024860152606485019062000250565b8381036003190160448501529062000250565b03925af18015620001c6576200019f575b83516117be9081620002788239608051816105bb0152f35b8211620001b25750815238808062000187565b634e487b7160e01b81526041600452602490fd5b84513d84823e3d90fd5b8480fd5b8551631e4fbdf760e01b815260006004820152602490fd5b634e487b7160e01b600052604160045260246000fd5b600080fd5b601f909101601f19168101906001600160401b03821190821017620001ec57604052565b60005b8381106200023f5750506000910152565b81810151838201526020016200022e565b906020916200026b815180928185528580860191016200022b565b601f01601f191601019056fe6040608081526004908136101561001557600080fd5b6000803560e01c806234e74f146109d05780631fcfc04c14610959578063221c99e41461091c5780632973cce7146108a75780632e0f26251461088b578063334de98f146108605780633bac1aa11461083e57806346bdca9a1461081d5780635ffe9c78146107fb578063715018a6146107a15780637296661514610782578063858e742d1461073557806389c2ac83146106d65780638da5cb5b146106ae578063adcf80301461068c578063b1412aeb1461064a578063b4bd2cc5146105ea578063b9c54536146105a6578063e079c04d14610344578063e75ad2d614610323578063ebdf86ca146102e2578063f2fde38b1461024f578063f38396aa14610220578063f71ef322146101d25763fc0d03291461013257600080fd5b346101cf575061014136610dd8565b918251156101c1575061015c610156836115ab565b5161129b565b9160019081805b610184575b6101808461017587610edb565b905191829182610d65565b0390f35b81518110156101bc5761019a61015682846115b8565b8581106101b2575b506101ac90611225565b82610163565b94506101ac6101a2565b610168565b9051631870438760e21b8152fd5b80fd5b50346101cf57506101fe6101f26101f86101eb36610d91565b929061129b565b9161129b565b906114f5565b929015610212575061017561018092610edb565b90516323d359a360e01b8152fd5b50903461024b57610180906101756101f261023d6101eb36610d91565b908180821091180218610edb565b5080fd5b509190346102de5760203660031901126102de576001600160a01b038235818116939192908490036102da57610283610e76565b83156102c457505082546001600160a01b0319811683178455167f8be0079c531659141344cd1fd0a4f28419497f9722a3daafe3b4186f6b6457e08380a380f35b51631e4fbdf760e01b8152908101849052602490fd5b8480fd5b8280fd5b50346101cf57506103016101f26102fb6101eb36610d91565b90610ea2565b929015610315575061017561018092610edb565b9051631a93c68960e11b8152fd5b50903461024b576020906101f261033c6101eb36610d91565b109051908152f35b50346101cf5761035336610d91565b9290805115610596578291839284859286955b8551871015610529576001600160f81b0319601760f91b816103888a8a61124a565b5116146104d457600360fc1b8161039f8a8a61124a565b5116109081156104ba575b50610482578261042157600a9081810291818304149015171561040e576103d1878761124a565b5160f81c90602f1982019182116103fb576103f5916103ef9161128e565b96611225565b95610366565b634e487b7160e01b895260118b52602489fd5b634e487b7160e01b885260118a52602488fd5b9560128510610434575b6103f590611225565b9392600a9081810291818304149015171561040e57610453858761124a565b5160f81c90602f1982019182116103fb576104746103f59261047a9261128e565b94611225565b94905061042b565b815163df70480560e01b81526020818c0152601160248201527024b73b30b634b21031b430b930b1ba32b960791b6044820152606490fd5b603960f81b91506104cb898961124a565b511611386103aa565b5095916104e6576103f5600192611225565b5163df70480560e01b81526020818a0152601d60248201527f4d756c7469706c6520646563696d616c20706f696e747320666f756e640000006044820152606490fd5b9550969792935050935b6012831061055c57602086886105546101f28961054f8a611271565b61128e565b119051908152f35b909193600a908181029181830414901517156105835761057c9094611225565b9190610533565b506011602492634e487b7160e01b835252fd5b8151630626ad3360e01b81528590fd5b50903461024b578160031936011261024b57517f00000000000000000000000000000000000000000000000000000000000000006001600160a01b03168152602090f35b5091346102de576106096101f26106036101eb36610d91565b906114d6565b93670de0b6b3a764000094858102958187041490151715610637575015610212575061017561018092610edb565b634e487b7160e01b815260118352602490fd5b50903461024b576101809061017561068761067a670de0b6b3a764000061068061067336610d91565b939061129b565b9261129b565b0490611504565b610edb565b50903461024b576020906101f26106a56101eb36610d91565b11159051908152f35b50903461024b578160031936011261024b57905490516001600160a01b039091168152602090f35b50903461024b576106f4916106fa6106ed36610d91565b949061129b565b9361129b565b9081156107235750610180926001610719610175936000198401610ebb565b0190151502611002565b634e487b71905260126020526024601cfd5b50346101cf5760203660031901126101cf5782359067ffffffffffffffff82116101cf575061077d6107786107736101809561017594369101610cf6565b61129b565b6115cc565b610fb2565b50346101cf57506103016101f261079b6101eb36610d91565b90611493565b50346101cf57806003193601126101cf576107ba610e76565b80546001600160a01b03198116825581906001600160a01b03167f8be0079c531659141344cd1fd0a4f28419497f9722a3daafe3b4186f6b6457e08280a380f35b50903461024b576020906101f26108146101eb36610d91565b10159051908152f35b50903461024b576020906101f26108366101eb36610d91565b149051908152f35b50903461024b576020906101f26108576101eb36610d91565b14159051908152f35b50903461024b57610180906101756101f261087d6101eb36610d91565b908180821191180218610edb565b50903461024b578160031936011261024b576020905160128152f35b50346101cf57506108b736610dd8565b918251156101c157506108cc610156836115ab565b9160019081805b6108e4576101808461017587610edb565b81518110156101bc576108fa61015682846115b8565b858111610912575b5061090c90611225565b826108d3565b945061090c610902565b50346101cf575061093b6101f26109356101eb36610d91565b906114ac565b9290156103155750610175670de0b6b3a76400006101809304610edb565b50346101cf5760203660031901126101cf57823567ffffffffffffffff811161024b5761077361098c9136908601610cf6565b92818412156109c257600160ff1b84146109af5750610180926101759103610edb565b634e487b7160e01b825260119052602490fd5b505061017561018092610edb565b50346101cf5760603660031901126101cf5767ffffffffffffffff90833582811161024b57610a029036908601610cf6565b9060249182358481116102de57610a1c9036908801610cf6565b6044948535908111610c8257610a359036908901610cf6565b95825115610c7357839084968591869487995b87518b1015610c01576001600160f81b0319601760f91b81610a6a8e8c61124a565b511614610bad57600360fc1b81610a818e8c61124a565b511610908115610b93575b50610b5d5784610b0257600a90818102918183041490151715610af057610ab38b8961124a565b5160f81c90602f198201918211610add57610ad791610ad19161128e565b9a611225565b99610a48565b50634e487b7160e01b895260118d528989fd5b634e487b7160e01b895260118d528989fd5b9960128710610b15575b610ad790611225565b9594600a90818102918183041490151715610af057610b34878961124a565b5160f81c90602f198201918211610add576103ef610ad792610b559261128e565b969050610b0c565b825163df70480560e01b81526020818f01526011818c01527024b73b30b634b21031b430b930b1ba32b960791b81860152606490fd5b603960f81b9150610ba48d8b61124a565b51161138610a8c565b509993610bbf57610ad7600194611225565b815163df70480560e01b81526020818e0152601d818b01527f4d756c7469706c6520646563696d616c20706f696e747320666f756e6400000081850152606490fd5b8b8684928f8d8b918e5b60128410610c3857610180886101756106878c8b610c326101f26106f48e61054f8f611271565b916116ec565b90919294600a90818102918183041490151715610c6157610c599095611225565b929190610c0b565b50634e487b7160e01b81526011909152fd5b51630626ad3360e01b81528790fd5b8380fd5b6040810190811067ffffffffffffffff821117610ca257604052565b634e487b7160e01b600052604160045260246000fd5b90601f8019910116810190811067ffffffffffffffff821117610ca257604052565b67ffffffffffffffff8111610ca257601f01601f191660200190565b81601f82011215610d3d57803590610d0d82610cda565b92610d1b6040519485610cb8565b82845260208383010111610d3d57816000926020809301838601378301015290565b600080fd5b60005b838110610d555750506000910152565b8181015183820152602001610d45565b60409160208252610d858151809281602086015260208686019101610d42565b601f01601f1916010190565b906040600319830112610d3d5767ffffffffffffffff600435818111610d3d5783610dbe91600401610cf6565b92602435918211610d3d57610dd591600401610cf6565b90565b602080600319830112610d3d5760043567ffffffffffffffff808211610d3d5783602383011215610d3d57816004013593818511610ca2578460051b9260405195610e2586860188610cb8565b8652848601916024809583010194818611610d3d57808301935b868510610e5157505050505050505090565b8435868111610d3d578891610e6b85858594890101610cf6565b815201940193610e3f565b6000546001600160a01b03163303610e8a57565b60405163118cdaa760e01b8152336004820152602490fd5b91908201918210610eb35760019190565b600091508190565b8115610ec5570490565b634e487b7160e01b600052601260045260246000fd5b8015610f9457610eff670de0b6b3a7640000610ef88184046110bd565b92066110bd565b601281511015610f4657610f416040519182602091600360fc1b83830152610f31815180926021958686019101610d42565b8101036001810184520182610cb8565b610eff565b906021610dd5916040519381610f66869351809260208087019101610d42565b8201601760f91b6020820152610f858251809360208785019101610d42565b01036001810184520182610cb8565b50604051610fa181610c86565b60018152600360fc1b602082015290565b8015610f9457610fcb633b9aca00610ef88184046110bd565b600981511015610f4657610ffd6040519182602091600360fc1b83830152610f31815180926021958686019101610d42565b610fcb565b8015610f9457611011906110bd565b604051600061101f82610c86565b6001918281526020810191602036843760218201845b611088575b50509161107a93602192610dd5946040519683611061899551809260208089019101610d42565b840191601760f91b602084015251809387840190610d42565b010390810184520182610cb8565b6000190190600a906f181899199a1a9b1b9c1cb0b131b232b360811b8282061a8353049081156110b85784611035565b61103a565b806000917a184f03e93ff9f4daa797ed6e38ed64bf6a1f01000000000000000080821015611217575b506d04ee2d6d415b85acef810000000080831015611208575b50662386f26fc10000808310156111f9575b506305f5e100808310156111ea575b50612710808310156111db575b5060648210156111cb575b600a809210156111c1575b6001908160218186019561115687610cda565b966111646040519889610cb8565b808852611173601f1991610cda565b01366020890137860101905b61118b575b5050505090565b600019019083906f181899199a1a9b1b9c1cb0b131b232b360811b8282061a8353049182156111bc5791908261117f565b611184565b9160010191611143565b9190606460029104910191611138565b6004919392049101913861112d565b60089193920491019138611120565b60109193920491019138611111565b602091939204910191386110ff565b6040935081049150386110e6565b60001981146112345760010190565b634e487b7160e01b600052601160045260246000fd5b90815181101561125b570160200190565b634e487b7160e01b600052603260045260246000fd5b90670de0b6b3a76400009182810292818404149015171561123457565b9190820180921161123457565b9081511561148157600091828080805b8451871015611440576001600160f81b0319601760f91b816112cd8a8961124a565b5116146113e857600360fc1b816112e48a8961124a565b5116109081156113ce575b50611394578161133a57600a9081810291818304149015171561123457611316878661124a565b5160f81c90602f19820191821161123457611334916103ef9161128e565b956112ab565b956012831061134d575b61133490611225565b9192600a908181029181830414901517156112345761136c838661124a565b5160f81c602f1981019081116112345761047461138c916113349361128e565b929050611344565b60405163df70480560e01b815260206004820152601160248201527024b73b30b634b21031b430b930b1ba32b960791b6044820152606490fd5b603960f81b91506113df898861124a565b511611386112ef565b5095906113fa57611334600191611225565b60405163df70480560e01b815260206004820152601d60248201527f4d756c7469706c6520646563696d616c20706f696e747320666f756e640000006044820152606490fd5b935050909293505b6012811061145e57509061054f610dd592611271565b91600a908181029181830414901517156112345761147c9092611225565b611448565b604051630626ad3360e01b8152600490fd5b91908281116114a3576001920390565b50600091508190565b919082156114cc576114c18184029384610ebb565b03610eb35760019190565b5060019150600090565b9080156114eb576114e691610ebb565b600191565b5050600090600090565b919080156114a3576001920690565b9080156115a457811561159d578180600114611595576002146115845760208110610133831016604e8210600b8410161761157f57600190815b80821161155657505081600019048111611234570290565b90928060001904811161123457818416611576575b800292811c9061153e565b8092029161156b565b900a90565b905060ff8111611234576001901b90565b505050600190565b5050600090565b5050600190565b80511561125b5760200190565b805182101561125b5760209160051b010190565b6001808211156116e857611689908083600160801b8110156116d6575b80600160401b60049210156116c9575b6401000000008110156116bc575b620100008110156116af575b6101008110156116a3575b6010811015611697575b1015611690575b600302811c61163e8185610ebb565b01811c61164b8185610ebb565b01811c6116588185610ebb565b01811c6116658185610ebb565b01811c6116728185610ebb565b01811c61167f8185610ebb565b01901c8092610ebb565b8111900390565b811b61162f565b811c9160021b91611628565b60081c91811b9161161e565b60101c9160081b91611613565b60201c9160101b91611607565b60401c9160201b916115f9565b50600160401b9050608084901c6115e9565b5090565b91818302916000198185099383808610950394808603951461177b5784831115611762579082910981600003821680920460028082600302188083028203028083028203028083028203028083028203028083028203028092029003029360018380600003040190848311900302920304170290565b82634e487b71600052156003026011186020526024601cfd5b505090610dd59250610ebb56fea264697066735822122096c6b7fd2951445dd67cf137063c7a06e12459dc162e1a06fe53e7d50881cc3364736f6c63430008140033",
  "linkReferences": {},
  "deployedLinkReferences": {}
}