{
  "_format": "hh-sol-artifact-1",
  "contractName": "SystemPrimitive",
  "sourceName": "contracts/primitives/system/SystemPrimitive.sol",
  "abi": [
    {
      "inputs": [
        {
          "internalType": "address",
          "name": "_llmPrecompile",
          "type": "address"
        },
        {
          "internalType": "string",
          "name": "metadata",
          "type": "string"
        },
        {
          "internalType": "address",
          "name": "_executor",
          "type": "address"
        }
      ],
      "stateMutability": "nonpayable",
      "type": "constructor"
    },
    {
      "inputs": [],
      "name": "InvalidExecutorAddress",
      "type": "error"
    },
    {
      "inputs": [
        {
          "internalType": "address",
          "name": "owner",
          "type": "address"
        }
      ],
      "name": "OwnableInvalidOwner",
      "type": "error"
    },
    {
      "inputs": [
        {
          "internalType": "address",
          "name": "account",
          "type": "address"
        }
      ],
      "name": "OwnableUnauthorizedAccount",
      "type": "error"
    },
    {
      "inputs": [],
      "name": "ReentrancyGuardReentrantCall",
      "type": "error"
    },
    {
      "anonymous": false,
      "inputs": [
        {
          "indexed": true,
          "internalType": "address",
          "name": "previousOwner",
          "type": "address"
        },
        {
          "indexed": true,
          "internalType": "address",
          "name": "newOwner",
          "type": "address"
        }
      ],
      "name": "OwnershipTransferred",
      "type": "event"
    },
    {
      "anonymous": false,
      "inputs": [
        {
          "indexed": true,
          "internalType": "address",
          "name": "contractAddress",
          "type": "address"
        },
        {
          "indexed": true,
          "internalType": "address",
          "name": "primitiveContract",
          "type": "address"
        }
      ],
      "name": "RobotContractDeployed",
      "type": "event"
    },
    {
      "inputs": [],
      "name": "LLM_PRECOMPILE_BASE",
      "outputs": [
        {
          "internalType": "contract ILLM",
          "name": "",
          "type": "address"
        }
      ],
      "stateMutability": "view",
      "type": "function"
    },
    {
      "inputs": [
        {
          "internalType": "string",
          "name": "primitiveName",
          "type": "string"
        },
        {
          "internalType": "string",
          "name": "contractName",
          "type": "string"
        },
        {
          "internalType": "address",
          "name": "ownerAddress",
          "type": "address"
        },
        {
          "internalType": "string",
          "name": "customRules",
          "type": "string"
        }
      ],
      "name": "deployRobotContract",
      "outputs": [
        {
          "internalType": "address",
          "name": "customPrimitive",
          "type": "address"
        }
      ],
      "stateMutability": "nonpayable",
      "type": "function"
    },
    {
      "inputs": [],
      "name": "executor",
      "outputs": [
        {
          "internalType": "address",
          "name": "",
          "type": "address"
        }
      ],
      "stateMutability": "view",
      "type": "function"
    },
    {
      "inputs": [],
      "name": "owner",
      "outputs": [
        {
          "internalType": "address",
          "name": "",
          "type": "address"
        }
      ],
      "stateMutability": "view",
      "type": "function"
    },
    {
      "inputs": [],
      "name": "renounceOwnership",
      "outputs": [],
      "stateMutability": "nonpayable",
      "type": "function"
    },
    {
      "inputs": [
        {
          "internalType": "address",
          "name": "newOwner",
          "type": "address"
        }
      ],
      "name": "transferOwnership",
      "outputs": [],
      "stateMutability": "nonpayable",
      "type": "function"
    }
  ],
  "bytecode": "0x60c06040908082523461022d576110d5803803809161001e8285610232565b8339810160608282031261022d5761003582610255565b6020838101516001600160401b03949293929085811161022d5781019083601f8301121561022d578151908682116102175787519461007d601f8401601f1916860187610232565b82865284838501011161022d5761009e88926100a494868089019101610269565b01610255565b938551918683019083821083831117610217576e53797374656d5072696d697469766560881b918852600f845283015233156101ff5760008054336001600160a01b031982168117835588516001600160a01b039790969395939288929083167f8be0079c531659141344cd1fd0a4f28419497f9722a3daafe3b4186f6b6457e08880a3169182608052823b156101fb57918585816101768195610164849863771a4f8760e01b855230600486015260606024860152606485019061028c565b8381036003190160448501529061028c565b03925af180156101f1576101cc575b505050600180558116156101bc5760a05251610e2390816102b282396080518161016b015260a05181818161012101526102c20152f35b815162a4c69d60e31b8152600490fd5b82116101dd57508352388080610185565b634e487b7160e01b81526041600452602490fd5b86513d84823e3d90fd5b8480fd5b8551631e4fbdf760e01b815260006004820152602490fd5b634e487b7160e01b600052604160045260246000fd5b600080fd5b601f909101601f19168101906001600160401b0382119082101761021757604052565b51906001600160a01b038216820361022d57565b60005b83811061027c5750506000910152565b818101518382015260200161026c565b906020916102a581518092818552858086019101610269565b601f01601f191601019056fe6040608081526004803610156200001557600080fd5b600091823560e01c806317d2056a1462000225578063715018a614620001c45780638da5cb5b146200019a578063b9c545361462000154578063c34c08e5146200010a5763f2fde38b146200006957600080fd5b346200010657602036600319011262000106576001600160a01b0382358181169391929084900362000101576200009f62000594565b8315620000eb575050600054826bffffffffffffffffffffffff60a01b821617600055167f8be0079c531659141344cd1fd0a4f28419497f9722a3daafe3b4186f6b6457e0600080a380f35b51631e4fbdf760e01b8152908101849052602490fd5b600080fd5b8280fd5b8382346200015057816003193601126200015057517f00000000000000000000000000000000000000000000000000000000000000006001600160a01b03168152602090f35b5080fd5b8382346200015057816003193601126200015057517f00000000000000000000000000000000000000000000000000000000000000006001600160a01b03168152602090f35b8382346200015057816003193601126200015057905490516001600160a01b039091168152602090f35b83346200022257806003193601126200022257620001e162000594565b600080546001600160a01b0319811682556001600160a01b03167f8be0079c531659141344cd1fd0a4f28419497f9722a3daafe3b4186f6b6457e08280a380f35b80fd5b50829034620001505760031991608036840112620002225767ffffffffffffffff938035858111620001065762000260903690830162000538565b9060243586811162000440576200027b903690830162000538565b6044356001600160a01b03818116939291849003620004e657606435898111620004e257620002ae903690850162000538565b94600260015414620004d2576002600155817f000000000000000000000000000000000000000000000000000000000000000016918851635a0a106160e11b815260209b8c878301528c8280620003096024820188620005c1565b0381885afa918215620004c8578a9262000485575b508a51916107ea80840192831184841017620004725783928f8e8960609492896200035c978795620006048b391685528401528201520187620005c1565b039089f0801562000468571698823b1562000464579160608886620003b98d620003a4989684988f519a8b998a988997630e65b1af60e41b89528801526064870190620005c1565b926024860152848303016044850152620005c1565b03925af180156200045a5762000444575b50853b156200044057908391620003ff86519485938493630c732f4b60e41b85528401528760248401526044830190620005c1565b038183885af1801562000436576200041e575b50506001805551908152f35b6200042a8291620004ea565b62000222578062000412565b83513d84823e3d90fd5b8380fd5b6200045290949194620004ea565b9287620003ca565b86513d87823e3d90fd5b8780fd5b89513d8a823e3d90fd5b634e487b7160e01b8c526041895260248cfd5b9091508c81813d8311620004c0575b620004a0818362000515565b81010312620004bc57518281168103620004bc57908d6200031e565b8980fd5b503d62000494565b8b513d8c823e3d90fd5b8751633ee5aeb560e01b81528490fd5b8680fd5b8580fd5b67ffffffffffffffff8111620004ff57604052565b634e487b7160e01b600052604160045260246000fd5b90601f8019910116810190811067ffffffffffffffff821117620004ff57604052565b81601f82011215620001015780359067ffffffffffffffff8211620004ff576040519262000571601f8401601f19166020018562000515565b828452602083830101116200010157816000926020809301838601378301015290565b6000546001600160a01b03163303620005a957565b60405163118cdaa760e01b8152336004820152602490fd5b919082519283825260005b848110620005ee575050826000602080949584010152601f8019910116010190565b602081830181015184830182015201620005cc56fe60806040908082523461022c576107ea803803809161001e82856103ca565b833981019060608183031261022c57610036816103ed565b9160206100448184016103ed565b838601516001600160401b039491939185821161022c5701601f82818301121561022c57815186811161020b57885192601f199161008884820184168801866103ca565b8085528685019587828401011161022c5785876100a59301610401565b6001600160a01b038881169890969089156103b25787821695861561039a5785511561036057507f360894a13ba1a3210667c828492db98dca3e2076cc3735a920a3ca505d382bbc557fac0974bec39a17e36ba4a6b4d238ff944bacb478cbed5efcae784d7bf4f2ff805582519087821161020b577f9f2cbf14d45099f51bf985adb3c53b5e52f3a7db48a42b9fe7e952864c20df65928354946001928387811c97168015610356575b898810146103405786838a98116102e7575b50869285116001146102845750600496949392600092849283610279575b50501b916000199060031b1c19161790555b8751636b0b04a560e01b815292839182905afa91821561026e57600092610231575b50501691823b1561022c57600092604484928651958693849263376ec99960e21b845230600485015260248401525af18015610221576101fc575b82516103c590816104258239f35b811161020b57815238806101ee565b634e487b7160e01b600052604160045260246000fd5b83513d6000823e3d90fd5b600080fd5b81813d8311610267575b61024581836103ca565b810103126102635751908282168203610260575038806101b3565b80fd5b5080fd5b503d61023b565b86513d6000823e3d90fd5b01519250388061017f565b849291979594169084600052866000209160005b8181106102d157509783600499106102b8575b505050811b019055610191565b015160001960f88460031b161c191690553880806102ab565b828a015184558a98938601939283019201610298565b909192939495809750600052886000208480880160051c8201928b8910610337575b958b999897969594939291950160051c01905b8181106103295750610161565b600081558a9850850161031c565b92508192610309565b634e487b7160e01b600052602260045260246000fd5b96607f169661014f565b60448885878f946103918b9651968795636b8e16c160e01b8752600487015251809281602488015287870190610401565b01168101030190fd5b8b51630f691b6560e01b815260048101889052602490fd5b8a516307e70f3b60e31b8152600481018b9052602490fd5b601f909101601f19168101906001600160401b0382119082101761020b57604052565b51906001600160a01b038216820361022c57565b60005b8381106104145750506000910152565b818101518382015260200161040456fe6040608081526004361015610017575b503661028857005b6000803560e01c9182637a5b4f591461004157505063c732f4b01461003c573861000f565b6101f9565b3461014057816003193601126101405781807f360894a13ba1a3210667c828492db98dca3e2076cc3735a920a3ca505d382bbc54637a5b4f5960e01b60a052600460805261008f60c0604052565b60a0608051915afa906100a06102c9565b91156101305781518201916020818185019403126101285760208101519067ffffffffffffffff821161012c570182603f82011215610128576020810151936100e8856101dd565b936100f5845195866101b6565b8585528386840101116101255750610121936101179183602086019101610144565b519182918261018c565b0390f35b80fd5b8380fd5b8480fd5b51639585c24b60e01b8152600490fd5b5080fd5b60005b8381106101575750506000910152565b8181015183820152602001610147565b9060209161018081518092818552858086019101610144565b601f01601f1916010190565b90602061019d928181520190610167565b90565b634e487b7160e01b600052604160045260246000fd5b90601f8019910116810190811067ffffffffffffffff8211176101d857604052565b6101a0565b67ffffffffffffffff81116101d857601f01601f191660200190565b34610283576040366003190112610283576004356001600160a01b0381168103610283576024359067ffffffffffffffff821161028357366023830112156102835781600401359061024a826101dd565b9161025860405193846101b6565b8083523660248286010111610283576020816000926024610281970183870137840101526102f9565b005b600080fd5b7f360894a13ba1a3210667c828492db98dca3e2076cc3735a920a3ca505d382bbc546000808092368280378136915af43d82803e156102c5573d90f35b3d90fd5b3d156102f4573d906102da826101dd565b916102e860405193846101b6565b82523d6000602084013e565b606090565b6103386000929161034684936040519384916020830194630c732f4b60e41b865260018060a01b03166024840152604060448401526064830190610167565b03601f1981018452836101b6565b7f360894a13ba1a3210667c828492db98dca3e2076cc3735a920a3ca505d382bbc549151915af46103756102c9565b501561037d57565b604051630337323560e31b8152600490fdfea26469706673582212201310eede8db8f4c468631ca7306a2647446f92e8da6f135f70913ab9d21c230664736f6c63430008140033a2646970667358221220b44623d4c68caf8bffde09bb87045787c71f3e50775845b2639663d50ef0b90b64736f6c63430008140033",
  "linkReferences": {},
  "deployedLinkReferences": {}
}